:100000000040002011000000FD040000FD0400007D
:1000100010B501F039F900F035FC00F08FFA00005E
:1000200070B572B699221C4B1C4D1A601C4B953A48
:100030001A601C4B7C321A601B4B763A1A601B4AC2
:100040001B4B18201A6002221A4B00241A6012233C
:100050002B6001F071F8F022174B12011A60174A59
:10006000174B18491A604022174B0D201C60174B84
:100070001A6000F095FF0D2000F0BEFF144B200029
:100080001C6001F009F9112303222B60114B1A6047
:10009000114B1D321A6070BD000302403000104049
:1000A0000000044008000440000304403104000044
:1000B00008030440180304400003014040FF00808F
:1000C0000000014025130000280003400401014006
:1000D0000C02224030003040000E3F400000000083
:1000E0000000000000000000000000000000000010
:1000F0000000000000000000000000000000000000
:1001000010B5064C2378002B07D1054B002B02D0ED
:10011000044800E000BF0123237010BD4801002007
:1001200000000000FC1F0000084B10B5002B03D09E
:100130000749084800E000BF07480368002B00D1CA
:1001400010BD064B002BFBD09847F9E700000000DC
:100150004C010020FC1F0000B8000020000000003F
:1001600010B5054C200001F04FF820686368010BC2
:10017000000589B2184310BDAC010020F8B5FFF7A7
:10018000EFFF00250C0422002B00801859412B00A2
:10019000220C801A99410B04040C1C43584B594DF6
:1001A000E118594B0A091A40584B09011940584B9C
:1001B0000A43D21893082B40564D92002A4013430D
:1001C000554AAC46554E9B18554D5A085B00324077
:1001D0002B401343534A54499B18544A1F0A1B028D
:1001E0000F4013403B4307013A00F027504D3F03B7
:1001F0002B60504B174023401F434F4B4B4AFF1877
:100200003B0A3F0217400B404C4A3B439B183D4A78
:100210009F08DB43174062469B0013401F43484B37
:10022000394AFF18FB431B091340384A3F01174066
:10023000444A3B439B183A4A5F085B0037401340EF
:100240003B436B60F02307041B053B403E4F374A9E
:1002500027403B43F02707401F433C4B0002FF1859
:10026000FB433F021B0A17400B40394A3B439B1894
:100270001F09DB43244A1B011740244A13401F4334
:10028000344B204AFF18FF43BB0813406246BF00AF
:100290001740314A3B439B18214A5F085B003740B7
:1002A00013403B43AB602D4B1C40F0231B01184017
:1002B0000443E0436400400814400640284B2643B2
:1002C000F6183309F643104A360113400F4A164018
:1002D0001E43244B154AF618F34336021B0A1940F5
:1002E0003240214B0A43D218D243064993080B40AF
:1002F000614692000A401A431C4BD218EA60F8BDCE
:1003000059C9947F333333330F0F0F0FF0F0F0F0F0
:100310004E384E0ACCCCCCCCDC84235755555555A1
:10032000AAAAAAAA247BDCA8FF00FF0000FF00FF06
:10033000B4010020FFFFF0FF41BD4B3946F6AC3F52
:10034000DAE94D414299797E0FFFFFF02DB1F6B207
:10035000B2C3ED1B731F94F5DBAEE973FFF0FFFF33
:1003600038E47C2339DEC7D99A0FEC4100C1C62896
:100370000023F0B585B06946114A9A1812785A548C
:100380000133102BF7D1009B1FBA019B1EBA029BB1
:100390001DBA039B1CBAFFF7F1FE0A4B00201A6836
:1003A00097420AD15A68964207D19A68954204D179
:1003B000D868001B4342434158B2C0B205B0F0BDFB
:1003C000F0F7FF0FB401002010B590B040220B49A8
:1003D000684601F0D7F9002318006C4608495A42D4
:1003E00059180978A25C914201D00130C0B2013B9A
:1003F0001A004032F1D110B010BDC04600200000FC
:10040000FF27000010B50A2000F022FE094800F086
:1004100065F80A2000F01CFE8022074B52001A608B
:10042000064A074B1A604022064B1A6000F076FC21
:1004300010BDC046402000000003014041FF008085
:1004400000000140B000002010B500F0D1F800F02D
:10045000D1FF002811D1063000F0B4FF012000F0D8
:10046000BDFF00F0C7FF002803D100F0ABFFFFF78E
:10047000C9FF002000F0A6FF14E000F0DBFF002819
:1004800010D1063000F0BEFF012000F0C7FF00F0E1
:10049000D1FF002803D100F0B5FFFFF7B3FF002024
:1004A00000F0B0FFFFF764FF002805D0642000F0E3
:1004B000CFFD00F033FC08E0FFF786FF002801D1F4
:1004C00000F02CFC044800F009F8642000F0C0FDA6
:1004D00000F09CF8FEE7C046532000000FB400B5C2
:1004E000B5B036AA02CA02A8019201F075F902A8B5
:1004F00000F036F935B008BC04B0184710B501F06B
:1005000015F903680C2B00D1FEE7FEE7030010B5D8
:1005100080240849084A08686401C3189A1AA2424C
:1005200001DC0B6005E001F001F90C230360012000
:10053000404210BDBC00002018020020F8B5002584
:100540000F49104B01394A1C14D000221F685C6807
:100550009E68A018B24203D0B858A0500432F8E701
:100560000200DE68141AA64201D020C2FAE7103356
:100570000139E8E701F0E0F8FFF766FFFEE7C04663
:10058000010000001C210000002370B50B480C4C3A
:100590000C4D9A002100032B00D8A958013381503B
:1005A0002C2BF6D1FFF73CFD074B1A68002A00D12F
:1005B0001A608022054B92051A6070BD0000002071
:1005C000FD04000000000000B000002008ED00E085
:1005D0008021064A10B5136809060B4313600820F2
:1005E00000F00AFD00F096F810BDC046000025405E
:1005F00010B5054C2378002B03D100F01DF8012322
:100600002370FFF7E5FF10BD6401002010B508203E
:1006100000F0FCFC00F090F8054A082013685B002D
:100620005B0813600022034B1A6000F0F9FC10BD58
:1006300000002540880F254070B5002407210425BF
:100640001C4A1D4B08201A601C4B1D4A1C601D4B88
:100650001A601D4B1D4A13601D4A11601D4A063960
:1006600014601D4A11601D4A13601D4B1C601D4B18
:100670001D6000F0CBFC0321082000F09DFC1A490E
:10068000082000F08DFC194B1C60194B1C60194BA5
:100690001C60194B1C60194B1D60194B1C601A68BB
:1006A000184B1A80184B1C60184B1C60184B1C70A0
:1006B00070BDC0460C0000020000254040002540EF
:1006C00001000A0048002540070000800003254083
:1006D0000403254010032540440025400002254026
:1006E0000402254050002540E9140000880E2540F2
:1006F000C80E2540480F2540080F2540C80F25404B
:10070000880F25406C010020C8010020C401002092
:10071000CC010020F021054A13688B4360390B435C
:100720001360034B1A88034B1A60704700030240A2
:100730006C010020880F2540F021064A13688B4386
:100740001360054B1A68E423DB001340034A13804F
:100750007047C04600030240880F25406C0100200E
:1007600010B504000134631E1878002802D000F090
:10077000A1FEF7E710BD004770B506000D0014009C
:10078000002802D0002000F055FC00207519002C34
:1007900005D0013C2B191B78C018C0B2F7E770BD1B
:1007A000FF23020070B59A43C0B01300541C6A4680
:1007B000FF34D51A1E78EE540133A342FAD1C3B2E6
:1007C000D45C8C4205D0000AD15480B2110000F0F4
:1007D0003BFB40B070BD0000013810B50B2830D88D
:1007E0000902494200F002FF06080A0C0E1014121A
:1007F00016191B20174B13E0174B16E0174B0AE096
:10080000174B12E0174B0BE0174B09E0174B02E0B8
:10081000174B00E0174BC91817E0174B05E0174BB3
:10082000C9180878C0B214E0154BC9180A7848787E
:100830008C780002230418430300C8781343000691
:1008400006E0002000F0F6FB00210B78487800025B
:10085000184310BDC0FF0100C1FF0100C5FF01002A
:10086000C9FF0100D0FF0100D1FF0100D6FF010048
:10087000D2FF0100D4FF0100D8FF0100DCFF01001E
:10088000E0FF01000C4B10B51A68102313400B4A0F
:1008900000D113601368802B0DD1002402202100A9
:1008A0001460FFF799FFA04205D021000220FFF756
:1008B00093FFFFF760FF10BD54000340B00000201D
:1008C000F8B5010004000320FFF786FF21000600B1
:1008D0000420FFF781FF210007000620FFF77CFFBF
:1008E0000025012828D021000320FFF775FF0136DD
:1008F0003602F7192E0001300002B84209D20378FF
:100900005A1ED2B2FD2A00D80126ED18EDB20130F0
:10091000F3E721000120FFF75FFF6D42EBB20625F0
:10092000834209D1002E07D0044B24026042C01834
:100930000121FFF735FF00252800F8BDD1FF010098
:10094000F0B5C24CA54400F009FE62B6002700973E
:100950000197962103AC46ADFF23220049002800F1
:1009600000F004FE0028F4D12188062900D8AFE168
:100970002A780423012A5CD16E88F21D8A4200D9AC
:1009800086E0962149008A4200D981E0AA1992792D
:10099000172A4ED1F3189BB2002B08D0DCAAAC4921
:1009A000D21852181278013B801880B2F3E7AB19C5
:1009B0005A7940421B79120280B21A4308238242BC
:1009C00037D167E0342B00D0D6E0009B012B00D05C
:1009D0007EE1032E00D07BE180220021520091A80D
:1009E000802700F0D8FE7F00182191ABD819FF3185
:1009F00002ABF21EC91800F0C5FE0423F619FF333E
:100A0000B6B29E4200D01BE116228B21FF3202AB10
:100A10009B18490002AA521810781B78000218434C
:100A20008C4B0700984200D824E1FF3BFF3B00932A
:100A30000933002546A8012143702B0AC370002307
:100A400002AA06320170291D1580857089B200291D
:100A500009D0DCAC7E4E6418A419247801391B1926
:100A60009BB289B2F3E7DCA97B4C49195B420C19B4
:100A70009BB22370794C1B0A0C192370784B0735F5
:100A8000C91817230B70A9B27F3300F0A0FD60E7EF
:100A90000323CEE76B782C79180031380A282ED939
:100AA000704A1568002D26D0009A012A25D106AC7F
:100AB00002AA13725681002147AE0C22200005962F
:100AC00000F069FEA660210004A8A8472623A58897
:100AD000FF339D4202D9A368B34207D0A268002A1F
:100AE00001D1002D04D12368DBB2A3E70E23A0E7D8
:100AF0000E2315009EE705239CE7052399E700F0E8
:100B00007FFD0B001B00CFFF61FF4300CFFF4900BB
:100B10005D0061FF7B009200009B012B00D0D7E0BD
:100B2000002E00D0D4E03000FFF7CAFE434243411C
:100B30002B713300009D7DE7009B012B00D0C7E0A7
:100B4000012E00D0C4E0002C00D0C1E0464B1B6851
:100B50001B685A0CD2B2002A02D1DB03DB0D01E084
:100B600080239B002B711B0A6B71FF23AB71FE3B33
:100B7000EB71002304255DE7009B012B00D0A7E06B
:100B8000022E00D8A4E02FE7009B012B00D09FE0AD
:100B90000027DEE6009B012B00D099E02C33F519ED
:100BA000FF339D4200DD73E791ABD819320047A9AE
:100BB00000F0E8FD0023AFB21D003BE7062E00D099
:100BC00086E02A4A06AB94461000190014C814C1E6
:100BD0006246013EF6B29019A919007A0979884255
:100BE00076D1002EF5D147AA03CB03C201233700EB
:100BF0000093082533001DE7009B012B68D1032ECD
:100C000066D116228B21FF3202AB9B18490002AA43
:100C1000521816781B7836021E430E4B9E4259D945
:100C2000F63BFF3B05E70020FFF74AFE002802D114
:100C300080220F4B1A6000F095FC00F0FDF947E0B0
:100C400001230027009302333D00F3E68CFCFFFFF5
:100C5000A7FDFFFFFF010000ACFDFFFFADFDFFFFA3
:100C6000AEFDFFFF70010020C00000209C200000AE
:100C7000B0000020274B1B681A68130AD2B29BB23F
:100C8000002A01D001339BB26402381984B29C421D
:100C900014D3019B002B0BD180221900520006A80F
:100CA00000F079FD06A91C4800F0CEF8012301935D
:100CB00091A9200000F0C8F8002804D001230027E3
:100CC00000930933C0E70123070000930300BBE74B
:100CD0000423AEE680226102891909025200002035
:100CE000FFF74AFD0500002C0ED10B4B9E420BD1A5
:100CF00021000520FFF770FD21002D1A0620FFF7C7
:100D00006BFDEDB22D1AEDB26D4246AB1D710023A5
:100D100001258FE6C0000020FF01000070B5002013
:100D2000FFF7CEFD431E98410624134D40422B6829
:100D300004401A68C021C03A0020FFF71DFD6B680F
:100D40001B78181AC0B2834203D12B681B68002B92
:100D500002D1002000F06EF9084B19681A004029F2
:100D600001D0002C03D000231360FFF7E9FD80229F
:100D70001A6000F061F970BDC0000020B0000020D2
:100D800082B06A460B4B0C4900930C4B01930C4B01
:100D90001A600C4A1160C0461A68120F0F2A04D05C
:100DA0001A680020120F0A2A01D01868C0B202B0D7
:100DB0007047C046B6E900001600008074010020AC
:100DC0000800104004001040094B0A4A0A491A6002
:100DD0000A4A1160C0461A68120F0F2A04D01A6816
:100DE0000020120F0A2A01D01868C0B27047C0460E
:100DF00008001040B6E80000150000800400104014
:100E000082B06A460B4B0C4900930C4B01930C4B80
:100E10001A600C4A1160C0461A68120F0F2A04D0DB
:100E20001A680020120F0A2A01D01868C0B202B056
:100E30007047C046B6EA0000170000807401002029
:100E40000800104004001040F0B50024304BC7B03B
:100E5000029406000394984255D8A14253D08022B0
:100E600006A8520000F08EFC2A4B2B4D0493FF2362
:100E70002A492B4A04AF7B602F600A60C0462A686B
:100E80000191120F0F2A03D02A68120F0A2A01D0EB
:100E90002C681C400294029B002B36D100F0DDFA36
:100EA0000400FFF76DFF0390039B002B02D1FFF7B7
:100EB0008BFF0290029B002B16D11A4A1A4904920A
:100EC000049A0198360416430496134A2F60016071
:100ED000C0462968090F0F2903D01168090F0A2994
:100EE00001D01368DBB20293039B002B07D1FFF7FD
:100EF00087FF0390039B002B01D0039B02932000EC
:100F000000F0AFFA01E004230293029847B0F0BD6D
:100F1000FF010000B6D70000080010400400104098
:100F200004000080B6D800000500008070B5050000
:100F300000F093FA0400102D04D803210E4A136820
:100F40008B4307E0202D07D803210B4A13688B43FE
:100F500002390B4313600AE0302D05D80321064AFD
:100F600013688B430139F4E7002000F063F8200098
:100F700000F077FA70BDC04630001040024A034BC3
:100F800011680B401360704700002240FFFFFFBF55
:100F9000024B18684000C00F7047C0460000224056
:100FA0001B2800D901BE034B8000C31818681960C4
:100FB0007047C04640000020F8B504000E00032929
:100FC00000D901BE1B2C00D901BE032725003D40DE
:100FD000BD400635AF40AE4000F03FFAA408054BD7
:100FE000A400E4182368BB431E43266000F039FACE
:100FF000F8BDC04600E400E01F2318401E3B8340BC
:10100000014A13607047C04600E100E01F2318400A
:101010001E3B8340014A13607047C04680E100E0F8
:101020001F2318401E3B8340014A13607047C0468F
:1010300080E200E001BE7047034A044913689BB296
:101040000B4313607047C0460CED00E00400FA0546
:1010500070B5802504002D02064BAC4205D95868B6
:1010600000F0F2F9044BE418F6E79868604300F0EA
:10107000EBF970BDC80000200080FFFF37B500F01D
:10108000FDF8002842D000F0E8F91C21204B214A4D
:101090001B6812689B008A400B40920F1833D340A4
:1010A00080251D491D4A04000868ED0110401C4AB6
:1010B0005A435219D20B013A0243192B01D8194B4A
:1010C0000EE0194D19481818EB18A0251A3B0078A6
:1010D0001B786D031B182A43FF2B00D9FF239B05A8
:1010E0001A43134D0A602B6830200193FFF71EFF4F
:1010F0008021104AC905136814200B431360FFF7C1
:10110000A7FF019B20002B6000F0ABF937BDC04664
:10111000080F0340280003400800224000F800C0E8
:1011200040420F000000D43FAA2000004DF3FF0F03
:101130003000104000002240F7B50500183D0400C3
:10114000182D46D80126244B3700EB409F4340D151
:1011500000F083F90190FFF71BFF0097002802D0F1
:10116000FFF70CFF009607271C4E1D4A33681D49E8
:10117000BB4333601C4BE3181B78DBB213601B4A84
:101180001368BB4313601A4B0A68E31818787F236F
:101190009A43034013430B60322000F055F9182C9A
:1011A0000ED033681C3CA408BB433C401C43346055
:1011B000322000F049F93368AD08BB431D43356068
:1011C000009B012B01D1FFF759FF019800F049F96D
:1011D00000E001BEF7BDC04611111101080F034028
:1011E0000C0F0340180F03404DF3FF0F100F034087
:1011F00034F3FF0F10B5034B1B7B584300F024F969
:1012000010BDC046C8000020144B1A78144BD1B250
:1012100001601B781B020B431A000360114B1B7803
:101220001B041343104A0360127812061343036031
:101230000E4B1A780E4BD1B241601B781B020B4348
:101240001A0043600B4B1B781B0413430A4A43608C
:1012500012781206134343607047C04678F2FF0FBE
:1012600079F2FF0F7AF2FF0F7BF2FF0F7CF2FF0F94
:101270007DF2FF0F7EF2FF0F7FF2FF0F014B186828
:10128000C00F704700002240014A024B1A607047AD
:101290006588EDAC3800034070B5154D04002B682F
:1012A000144E9B0F9B07984215D0032233687C2075
:1012B000934333602B689B0F00D09030FFF79AFF69
:1012C00000F0CBF82B68A40F9B009B08A4071C43DD
:1012D0002C6000F0C6F803223368934319002B6892
:1012E0009A0F5342534101330B43336070BDC046E4
:1012F0000C0222401402224010B5040000F0ADF8A8
:101300000549064A0B681440054A134023430B6005
:101310000B6800F0A6F810BD10022240040404007F
:10132000FBFBFBFF042270B5224C2368134213D051
:1013300021490B6813420CD0204B5D6908681540A9
:10134000A84308605969914359619B68002B00D0FC
:1013500098470420FFF7D0FF80232268DB001A4261
:1013600015D015490A681A420DD0144A5569086803
:101370002B40984308605169114B0B405361D3686F
:10138000002B00D098478020C000FFF7B5FF8023D6
:101390002268DB021A420CD0074A12681A4204D0B3
:1013A000064B1B69002B00D098478020C002FFF736
:1013B000A3FF70BD10022240DC0000208C01002041
:1013C000FFFBFFFF034A044B116840020B40184328
:1013D0001060704708030440FFF1FFFF0823044931
:1013E000C0000A689A43D2B2034013430B607047AF
:1013F00000030440024B18680007C00F7047C04646
:1014000004030440034A044B116880010B40184355
:1014100010607047080004403FFEFFFF04230449AA
:1014200080000A689A43D2B2034013430B607047AE
:1014300000000440024B18684007C00F7047C046C8
:1014400004000440000000000230800803D0013096
:101450000238FCD1C046C0467047EFF3108072B628
:10146000704780F310887047084B094A1968136861
:101470000020994208D013680133412B00D10300AA
:101480000449C85C1360C0B27047C046C801002060
:10149000C4010020CD010020044B1868044B1A68D9
:1014A0001B68904200D24130C01A7047C80100202A
:1014B000C40100201F2204490B681340082BFBD0F5
:1014C000024B18607047C046080225404002254084
:1014D00070B504004518AC4204D02078FFF7EAFF4D
:1014E0000134F8E770BD0000134B70B51B68002B8A
:1014F00000D09847114B1B685B071CD520241F2088
:101500000F490B680133412B00D100230D4A1568A8
:101510000D4AAB4203D113680C4B1C7004E01268F7
:101520000B4DD2B2EA540B600A4B1B680342E8D160
:101530000422094B1A6070BD68010020CC0F2540C1
:10154000C8010020C401002040032540CC01002038
:10155000CD01002008032540C00F254010B5FFF73E
:1015600047F810BD10B5FFF751F810BDF8B50400ED
:101570000F0016000120002C28D0002926D00A25B3
:101580005D43FFF789FF002810D0FFF785FF0500B6
:10159000AE20FFF72FFEFFF77FFF8542F5D1390020
:1015A000AF4200D929003180651807E00120013DD4
:1015B000FFF74EFD002DE4D1102007E0AC4204D02F
:1015C000FFF752FF20700134F8E70020F8BD70B536
:1015D00001230C001500002805D0002903D0FFF7D7
:1015E00077FF00232C80180070BD000002B4714604
:1015F00049084900095C49008E4402BC7047C04656
:1016000003B47146490840004900095E49008E4410
:1016100003BC7047002243088B4274D303098B42FA
:101620005FD3030A8B4244D3030B8B4228D3030CB2
:101630008B420DD3FF22090212BA030C8B4202D354
:101640001212090265D0030B8B4219D300E0090A7C
:10165000C30B8B4201D3CB03C01A5241830B8B4285
:1016600001D38B03C01A5241430B8B4201D34B036E
:10167000C01A5241030B8B4201D30B03C01A5241D3
:10168000C30A8B4201D3CB02C01A5241830A8B4258
:1016900001D38B02C01A5241430A8B4201D34B0241
:1016A000C01A5241030A8B4201D30B02C01A5241A5
:1016B000CDD2C3098B4201D3CB01C01A5241830959
:1016C0008B4201D38B01C01A524143098B4201D393
:1016D0004B01C01A524103098B4201D30B01C01ABE
:1016E0005241C3088B4201D3CB00C01A5241830838
:1016F0008B4201D38B00C01A524143088B4201D365
:101700004B00C01A5241411A00D2014652411046C4
:101710007047FFE701B5002000F006F802BDC046A3
:101720000029F7D076E770477047C046014B18682C
:101730007047C046400100200E4B70B500251E00CA
:101740000D4CE41AA410A54204D0AB00F3589847FE
:101750000135F8E700F0D0FC084B00251E00084CCE
:10176000E41AA410A54204D0AB00F3589847013501
:10177000F8E770BD042100000421000004210000EE
:101780000C210000002310B59A4203D0CC5CC45455
:101790000133F9E710BD03008218934202D019709B
:1017A0000133FAE77047000030B59BB00091049117
:1017B00008496D4602910591012182244942E9813F
:1017C000A4006946AC8100F075F80023009A1370FC
:1017D0001BB030BDFFFFFF7F10B513000A000100F2
:1017E00002480068FFF7E0FF10BDC046400100203E
:1017F000F0B58E6885B007000C00039201939E42FD
:1018000043D890238A89DB001A423ED00325096918
:10181000236801985B1A029363695D43EB0F5D19BE
:10182000029B6D1001331B18AB4200D91D005305FC
:1018300010D52900380000F037FB061E14D0029A9C
:101840002169FFF79FFFA289194B134080221343A0
:10185000A38112E02A00380000F086FB061E0CD19E
:101860002169380000F0D4FA0C23402201203B60AB
:10187000A38940421343A38117E0029B2661F61817
:1018800026606561019EED1AA560019BB34200D2FE
:101890001E0032000399206800F0A5FA0020A3681A
:1018A0009B1BA36023689E19266005B0F0BDC0464F
:1018B0007FFBFFFFF0B59FB0029005938B890F006F
:1018C00016001B0610D50B69002B0DD1402100F02E
:1018D000EBFA38603861002804D10C23029A0138F1
:1018E0001360D8E040237B61002306AD6B61203399
:1018F0006B761033AB7634002378002B03D1A31B17
:10190000049312D003E0252BF9D00134F4E7A31B94
:10191000320039000298FFF76BFF431C00D1B4E09E
:101920006A69049B944663446B612378002B00D161
:10193000ABE00122002352426A6002A954325218DD
:1019400001342B60EB60AB601370AB65534E2178B4
:101950000522300000F03CFA002807D00123801B4C
:1019600083402A68013413432B60EFE72B68DA06C3
:1019700004D55322202102A8121811701A0704D589
:1019800053222B2102A81218117022782A2A03D080
:10199000099B00200A210EE0059A111D126805918D
:1019A000002A01DB099204E05242EA60022213435A
:1019B0002B6001340BE02278303A092A04D84B43DB
:1019C00001349B180120F6E7002800D00993237802
:1019D0002E2B1ED163782A2B0AD1059B02341A1DA7
:1019E0001B680592002B01DA01235B42079310E08C
:1019F00000230A201A0001346B602178303909294C
:101A000004D84243013452180123F6E7002B00D0DA
:101A10000792234E21780322300000F0D9F90028E4
:101A200006D04023801B83402A68013413432B6077
:101A3000217806221B48661C297600F0C9F9002887
:101A400012D0194B002B06D10722059B0733934375
:101A50000833059314E005AB00933A00134B2900BB
:101A6000029800E000BF07E005AB00933A000F4B7F
:101A70002900029800F08AF80390039B013304D0F8
:101A80006B69039A9B186B6135E7BB890B985B0602
:101A900001D5012040421FB0F0BDC046C320000068
:101AA000C9200000CD20000000000000F117000058
:101AB000F7B5170001938A680B6900900C009342F8
:101AC00000DA130022003B6043321278002A01D072
:101AD00001333B6023689B0602D53B6802333B60C1
:101AE000062523681D401ED0230043331B785A1E51
:101AF0009341226892061CD53020E11843310870CA
:101B000021005A1C45310978A21843320233117062
:101B10000FE022000123193201990098089EB04776
:101B2000431C0ED00135E3683A689B1A9D42F0DBF6
:101B3000DAE72200019943320098089DA847431C28
:101B400002D10120404220E006232068E1683A6883
:101B500003400025042B03D18D1AEB43DB171D40F6
:101B6000A3682269934201DD9B1AED180027BD424C
:101B70000AD0220001231A3201990098089EB0472A
:101B8000431CDED00137F2E70020FEBDF0B58BB07C
:101B900006920A0043320793059004920A7E0C00D5
:101BA000109B6E2A00D1ABE011D8632A22D009D84D
:101BB000002A00D1B5E0582A00D0C5E045310A70AE
:101BC000814A4FE0642A1DD0692A1BD0BCE0732AE9
:101BD00000D1AAE009D86F2A29D0702A00D0B3E03A
:101BE000202209680A43226037E0752A1FD0782A2C
:101BF00033D0A9E00E001A684236111D196013682F
:101C00003370A4E021681A68080606D4490604D592
:101C1000111D19600023D55E02E0111D19601568C1
:101C2000002D3BDA2D23049A6D42137036E02168B3
:101C30001A68080606D4490604D51568111D1960EE
:101C4000ADB202E0111D196015685F4B227E03934F
:101C500008276F2A1DD00A271BE022007821453271
:101C600011705A4A19680392081D226818600D689D
:101C7000100602D4500600D5ADB2D30702D52023FA
:101C80001A4322601027002D03D1202322689A4393
:101C900022602300002243331A7002E00A274A4BD5
:101CA00003936368A360002B09DB0422216891433E
:101CB0002160002D05D1049E002B11D07BE0002D6A
:101CC00079D0049E28003900FFF72AFD039B013ECE
:101CD0005B5C280033703900FFF79CFC051EF1D1D6
:101CE000082F09D12368DB0706D563682269934270
:101CF00002DC3023013E3370049B9B1B23612BE0ED
:101D000009681A68080607D4490605D5111D196027
:101D10001368A28A1A8004E0111D196013686269B1
:101D20001A600023049E236116E01A68111D1960D1
:101D3000166800216268300000F04AF8002801D0DF
:101D4000801B6060636803E0260042363270012326
:101D500023610023049A1370079B09AA00932100B2
:101D6000069B0598FFF7A4FE431C02D101204042C8
:101D700027E02369320006990598079DA847431C70
:101D8000F4D0236800259B070FD4099BE068984294
:101D900017DA180015E02200012319320699059878
:101DA000079EB047431CE1D00135E368099A9B1AAE
:101DB0009D42F0DBE9E72600039B42361B78337037
:101DC0008EE70BB0F0BDC046D4200000E520000037
:101DD000C9B28218904204D003788B4202D00130FD
:101DE000F8E70020704710B5884202D98B18984256
:101DF00001D3002305E09B1A013A08D3995C815472
:101E0000FAE7934203D0CC5CC4540133F9E710BD28
:101E100070B50500002944D00C1F2368002B00DAA0
:101E2000E418280000F0D8F81E4A13681100002BAF
:101E300002D16360146031E0A3420DD92268A0187A
:101E4000834203D118685B688218226063600C606B
:101E500024E0A24203D813005A68002AF9D11E6870
:101E60009819A0420BD12168711858181960824244
:101E700014D110685268411819605A600EE0A042EF
:101E800002D90C232B6009E021686018824203D13B
:101E9000106852684118216062605C60280000F0A0
:101EA0009CF870BDA8010020032370B5CD1C9D4394
:101EB000083506000C2D01D20C2501E0002D01DBB8
:101EC000A94202D90C23336048E0300000F084F8C6
:101ED000234B1C681A002100002913D00B685B1BE0
:101EE0000DD40B2B02D90B60CC181EE08C4202D112
:101EF000636813601AE04B6863600C0016E00C0026
:101F00004968E9E7174C2368002B03D1300000F043
:101F100051F820602900300000F04CF8431C18D024
:101F20000323C41C9C43A0420DD12560300000F067
:101F300054F8200007220B30231D9043C31A0ED003
:101F40005A42E2500BE0211A300000F033F8431CF3
:101F5000EBD10C233000336000F03FF8002070BD5F
:101F6000A8010020A4010020F8B506000C0015000F
:101F7000002904D11100FFF797FF040018E0002AA0
:101F800003D1FFF745FF2C0012E000F027F885424F
:101F90000ED929003000FFF787FF071E07D0210068
:101FA0002A00FFF7EFFB21003000FFF731FF3C0074
:101FB0002000F8BD002370B5064C05000800236022
:101FC000FEF7A4FA431C03D12368002B00D02B603A
:101FD00070BDC04610020020704770470B1F1A6882
:101FE000101F002A04DA891804390B68D018043845
:101FF00070470000002200002A00000000000000DE
:10200000F7FF7018B2C0300154144A1378184B10FF
:102010003C57F905F00038200020D80E2B053B6115
:102020000023E023FDC2F7FF7018B2C03001541541
:102030004A1D78184B1AF917F0000020D80C2D090A
:10204000626F6F746C6F6164657220737461727417
:102050000D0A0054686520626F6172642069732004
:102060006E6F74206163746976617465642C20708E
:102070006C6561736520616374697661746520695C
:102080007420776974682074686520616374697668
:10209000652E63796163640D0A000000B5116A253D
:1020A000003C0101D91F5DC38D2AEEDBC9B9AA9B93
:1020B0008E82766B60564D443B332C241D17100ADC
:1020C000044300232D302B2000686C4C00656667AC
:1020D000454647003031323334353637383941429E
:1020E0004344454600303132333435363738396170
:1020F0006263646566000000F8B5C046F8BC08BCC1
:102100009E4670472901000089050000F8B5C046C9
:10211000F8BC08BC9E467047010100003021000059
:10212000B800002090000000D00000000000000077
:102130000000000018020020F41F0000F81F00003B
:10214000010000000000E02EC05D0000180000004B
:1021500000366E01040404000000000000000000CE
:10216000000000000000000000000000000000006F
:102170000000000000000000C1200000000000007E
:10218000000000000000000000000000000000004F
:10219000000000000000000000000000000000003F
:1021A000000000000000000000000000000000002F
:1021B0000000000000000000E0000020000000001F
:1021C000000000000000000000000000000000000F
:1021D00000000000000000000000000000000000FF
:1021E00000000000000000000000000000000000EF
:1021F00000000000000000000000000000000000DF
:102200000040002011220000653500006535000007
:1022100080B5044B00AF83F3088801F04BFA01F05E
:10222000C1F9C0460040002070B572B60024414B91
:10223000414A1C60414BC7211A60414B414A1C6016
:10224000414B49001C60414B20251C600523136055
:102250003F4A11603F4A136012223F4B1A6001F05F
:1022600017FA302001F002FDE8223C4B52011A60BF
:102270003B493C4B3C481960C021890001603B4808
:1022800018603B4801603B493B4819603B490A6084
:102290003B491960F821490101603A4818603A4801
:1022A00004603A4818603A4802603A4A0D201A60C1
:1022B000394A1160394A3A491A604522394B1D6042
:1022C000394B1A60394B033A1A60394B013A1A609C
:1022D000384B06321A60384B013A1A60374B033AD2
:1022E0001A60374B01321A60364B043A1A6001F01B
:1022F00003FC0D2001F02CFC8020334BC0051C603A
:1023000001F0E0F90322314B01201A608022304BAA
:1023100012061A6008222F4B1A602F4B1D6000F026
:102320008DFC62B601F046FD2C49042001F06AFDE7
:1023300070BDC04600030240FF0F000000040240D1
:102340000803044000040440180304400003044050
:1023500008040440180404403000104014030140F5
:1023600045FF0080000001400803014042FF00805B
:102370000403014041FF0080100301400C030140B1
:1023800043FF008044FF00800003014040FF0080C5
:102390001803014046FF00801C03014047FF0080F6
:1023A000BD390000280003404801014030010140D0
:1023B0002C010140100101400C01014008010140C5
:1023C00004010140000101400C0222403000304075
:1023D00000003A4000033A40000E3F402D2C000020
:1023E00010B5064C2378002B07D1054B002B02D0EB
:1023F000044800E000BF0123237010BD3801002015
:10240000000000007C780000044B10B5002B03D0C6
:102410000349044800E000BF10BDC04600000000B2
:102420003C0100207C7800001FB506211A2000F036
:10243000B9F900211A2000F0C3F9074A01230292DA
:10244000E12100225B4201920093044A49020448C0
:1024500000F07CFC05B000BD204E0000220800000A
:10246000BC02002037B500F015FD05000D4C0E49EB
:10247000200000F08BFE280004F054FF00220B4BDC
:1024800003F0F8FC04F0ECFF04F0A2FF0B000221C3
:1024900002000091200000F085FFFA20C00000F04B
:1024A0005DFA37BDBC0200208078000000408F40FC
:1024B000C308194A1B02F0B59D18184A03269C1838
:1024C000174A9B1807221040063A8240082903D079
:1024D000092902D1310000E002217043072686401D
:1024E0002F68B7430E008640380030432860D04341
:1024F000022903D119680A431A6008E01D680540E3
:102500001D60002903D123681A43226002E023687A
:1025100018402060F0BDC046080004401800044088
:102520000000044007B5684601F074FC0098019B68
:10253000010B000589B2184303B000BDF0B58FB0A0
:10254000FFF7F0FF0E04002534002B00001969414D
:10255000320C801A994100900191019B754E1C0428
:102560002200009BB4461B0C1A431000724A734FA2
:10257000821813093340724E120132401343714ADC
:10258000714E9B189A083240704E9B0033401343A3
:102590006F4A704E9B185A085B0032403B40134311
:1025A0006D4A6E4C9B186E4A1E0A1B022340164051
:1025B0001E432B0065460695614D66490795624DA1
:1025C0000891AC46614D099766495F183F780AA9A2
:1025D0005F540133102BF7D10B990A9B09BA039171
:1025E0000C991BBA09BA04910D9909BA05910021F9
:1025F00002919E4200D099E0F02600995A4B0F01BB
:1026000036033E405949034033435B181F021B0AFF
:102610001A403C40564B1443E418E2436346920090
:10262000A40815401C40534B2C43E218079B14018F
:102630001C40D34306991B090B404F4923435B18A9
:102640003E495F008C4609995B080F4008993E4E51
:102650000B401F43039B3A4D364A3E4C9F4265D187
:10266000009B00991F04F0231B051F40434B0340B0
:102670001F43F0230B4042493B435B181F02DB43DF
:1026800036491B0A0F4036490B401F433D4B2F492B
:10269000FF18FB433F091B012B4017401F433A4BD8
:1026A000FF18FF43BB08BF000F40334037493B438F
:1026B0005B1861465F000F405B08049923403B4371
:1026C0008B4233D1030032490B401900009B1802A2
:1026D000F0231B01184001434F00C94363464908DA
:1026E0001F4021402B4B0F43FF18FB433F091B01A9
:1026F0001D403A40284B2A43D2181849130219406A
:10270000D343174A1B0A1340244A0B439B18DB434D
:102710000E4A98089B00134030401843204BC018C5
:10272000059BC01A4342584143B202936B46187A44
:102730000FB0F0BD0F0F0F0F59C9947FAAAAAAAA14
:10274000F0F0F0F04E384E0A33333333CCCCCCCCEF
:10275000DC84235755555555247BDCA800FF00FF2A
:10276000FF00FF00F0F7FF0FFFFFF0FF41BD4B3907
:1027700046F6AC3FDAE94D414299797E0FFFFFF012
:102780002DB1F6B2B2C3ED1B731F94F5DBAEE97346
:10279000FFF0FFFF38E47C2339DEC7D99A0FEC4104
:1027A00000C1C62870B504000D00FFF7C7FE002861
:1027B00000D1FEE729002000FFF77AFE70BD00007F
:1027C00070B504000D00322802D0342809D014E07E
:1027D000124B1A78002A10D000221A7000F094FCD4
:1027E00007E00F4B1A78002A07D000221A7000F079
:1027F000A5FC06212000FFF7D5FFE308094A1B02CC
:102800009B1807221440063AA2401968002D01D0F7
:102810000A4301E091430A001A6070BD9102002052
:1028200050020020000004400723064A0340C0086D
:10283000000280180268012098401040D840C0B2C1
:102840007047C04604000440C308054A1B029B1899
:1028500007221040063A824019680A431A607047FE
:1028600010000440F7B50022184D0400184F2878D6
:102870000195D3B283421FD2511CBA5CA24201D04F
:102880000A00F6E71349E20812025218072103254D
:10289000214049008D401668AE431660FA18527800
:1028A000FA540133DBB29842F8D80021019B013879
:1028B000094A1870A3009950019B1B78002B01D185
:1028C00000F042FE2000FFF7BFFFF7BD900200209E
:1028D000510200200C000440540100200723F7B5EA
:1028E0000124144E0340376800219C400225FFF765
:1028F00059FFA74203D0104B04351F6034600024F9
:1029000000F072FB00F086FB012000F08BFB00283A
:1029100007D100F09DFB80231B01C01803B2019377
:10292000F2E7013400F07CFB00F06CFBA542E7D13C
:102930000198FEBD00033A4004033A4010B504007C
:10294000FFF7CCFF2000FFF7C9FF034BC01801B20F
:10295000002000F08DFB10BD00F8FFFF10B501F066
:102960000DF910BD10B500F017F810BD70B50220BC
:1029700000F0B4FF03000021054A064C1568581BFF
:10298000256866684019714113602060616070BD00
:10299000A002002098020020F8B500F056FE0500C5
:1029A000022000F09BFF030000210D4A0D4C166829
:1029B0001360981B26686768801979412060616000
:1029C000280000F046FE20686168FA220023920089
:1029D00001F09EFF4B04C00B1843C90BF8BDC04665
:1029E000A00200209802002010B58024640220007C
:1029F00000F000FF8020000301F05EF81F2000F0CF
:102A000057FF0749022000F09BFF022000F0A8FFBB
:102A10000121022000F098FE200000F0CFFE10BD42
:102A20006D29000070B50500002000F0B3FF012003
:102A300000F0B0FF0220FA26FF3000F0DBFE26484F
:102A400001F03AF8F600254BB54221D901243100B6
:102A50001C70280001F0DEFE214B00201960214986
:102A600000F0FEFE3100280001F04EFE01002000C3
:102A700000F0F6FE0021080000F066FE21002000B4
:102A800000F062FE200000F06BFF0220FF3020E02B
:102A9000FA20002480001C70684304F073FC0022BC
:102AA000114B03F0E7F901F073FF411E200000F025
:102AB000D7FE2100012000F0D3FE0121200000F00C
:102AC00043FE2100012000F03FFE200000F048FFFF
:102AD000012000F073FE70BD08080000A80200206D
:102AE000AC020020FFFF000080843E40022010B5B1
:102AF000FF3000F07FFE134800F0DEFF002000F002
:102B000049FF0124012000F045FF80200E4AC00546
:102B100013682343136000F0D5FD082000F086FE03
:102B20002100002000F030FE2100200000F02CFEEB
:102B30000649002000F004FF0549200000F000FFD6
:102B400010BDC04608080000000022406D2B0000A8
:102B5000892B0000022010B5FF3000F04BFE024828
:102B600000F0AAFF10BDC0460808000010B5002004
:102B700000F010FFFFF7EEFF024B1B68002B00D0A8
:102B8000984710BDA4020020094B10B51868002812
:102B900002D0FFF747FF09E0012000F0FBFEFFF73E
:102BA000D9FF044B1B68002B00D0984710BDC046CE
:102BB000AC020020A40200208021064A10B5136850
:102BC00009060B431360082000F0C2FF01F01EFA53
:102BD00010BDC04600002540FF21124A10B5136801
:102BE00018208B4366390B4313609639FFF7DAFDE3
:102BF00002211920FFF7D6FD00211820FFF7E0FD84
:102C000001211920FFF7DCFD074C2378002B07D1A9
:102C100001F08EF901232370FFF7CEFF01F032F9A6
:102C200010BDC04600030240B4020020024A1368EF
:102C3000013313607047C046B8020020054A13688C
:102C4000002803D0802109060B4301E05B005B08EC
:102C50001360704780033A4010B503681B6A9847B9
:102C600010BD002070477047102310B5C356002BCD
:102C700003D101F01BF9C0B210BD01F003FAFAE76D
:102C8000036810B51B6904009847002809D0102379
:102C9000E356002B02D101F0CDF910BD01F09AFAF4
:102CA000FBE701204042F8E7030010B51B7C080059
:102CB0005BB2002B03D101F011F9012010BD01F02E
:102CC000F9F9FAE7F8B5060015000C008F18A742CD
:102CD0000BD01023F3562078002B03D101F0FEF81F
:102CE0000134F4E701F0E6F9FAE72800F8BD10B581
:102CF00004001C2101F0B0FC200010BD102310B511
:102D0000C356002B08D101F0D9F801F0F5F80028DE
:102D1000FBD101F0F9F810BD01F0BCF901F0D8F9D0
:102D20000028FBD101F0DCF9F5E700000023436047
:102D3000C360FA239B008360034B083303600123C5
:102D40005B420174038370478C780000F7B505007F
:102D500010242C570800089E002C05D1002B03DA04
:102D6000002E08DB2000FEBD00210C00182BF9D13D
:102D7000192EF7D12974284B00212B8313061B0F22
:102D8000160A022B03D03031002B00D11039541E0B
:102D90000722A02314400C431B03234301930F235A
:102DA000013E1E40802368611B061E4302F0BCFCEE
:102DB000011C1A4801F0A6FF194901F0A3FF04F015
:102DC00007FB0022174B02F0EBFC174B002203F02D
:102DD000C3FE01F0DDFD1023EB560702002B0ED1E0
:102DE000FFF7FAFE114B019A1F60114B1A60114B4D
:102DF0001E60114B1C60114B01241E60B2E701F0F4
:102E000043FC0F4B019A1F600E4B1A600E4B1E6065
:102E10000E4B1C600E4BEFE718190000001B374CDF
:102E2000000050410000E03F0000F03F100301406F
:102E3000480025400003254044002540000225406D
:102E40001C0301404800284000032840440028405B
:102E50000002284070B50B4C00212000FFF766FFF0
:102E6000094E0A4D32002900200001F0EEFB084C0B
:102E700001212000FFF75AFF32002900200001F055
:102E8000E4FB70BDBC020020B8000020672C0000ED
:102E9000D802002070B506211B20FFF783FC00211B
:102EA0001B20FFF78DFC322500241320FFF746FD81
:102EB000011C201C01F08AFD013D041C002DF4D1F1
:102EC000064901F01FFF01F04BFD84B201211B20D8
:102ED0006400FFF767FCA0B270BDC0460000484226
:102EE00010B50321192000F013FE1C49192000F031
:102EF00003FE012280211A4B49031A60194B1A481C
:102F00001B68DB170B4019495B1801680B43036012
:102F10001749184B18481960184B194919600023B4
:102F200018490B6018490860184919480860194980
:102F300019480B6019490B60194B1A491A600B6844
:102F400003401A430A608022174BD2001A60174BC5
:102F5000174A1A80174B184A1A6010BDFD3000003E
:102F600020003A4080033A4000003A40400E0053AF
:102F70008D000A8004003A400600020018003A4022
:102F80000000FF071C003A4010003A4014003A408D
:102F90000200020028023A40FFFFFFDF38023A40F9
:102FA00018023A4030003A4080003A40FA020020CD
:102FB00000F8FFFFF4020020AB420000084B10B500
:102FC0001A68002A0BDB07490A68002AFCDB80220A
:102FD000196812060A430A201A6000F0A3FE10BD09
:102FE00000003A4008023A4010B5054C2378002B07
:102FF00003D1FFF775FF01232370FFF7DFFF10BD3B
:10300000F8020020024A13685B005B0813607047F7
:1030100000003A400122014B1A60704724003A40F8
:10302000704700000300032210B5104013420AD07D
:1030300002200649023A03400C6820001040144266
:1030400002D1181EF8D110BD0A60FCE710023A4008
:1030500010B5002805D0002000F08EFD002000B241
:1030600010BD024B186880B2F9E7C04680013A40B3
:10307000F8B504000D00002802D0002000F07CFD0F
:103080001B4B6200D15AA4006D1A2DB2280002F029
:1030900005FB184902F000F8174F061C002D1CDD37
:1030A000385902F0FBFAFC21890501F0F5FF011CFB
:1030B000301C01F08BFC3D59041C280002F0EEFA94
:1030C000011C201C01F01EFE0021041C01F0F8FB75
:1030D000002800D00024201CF8BD3B59D80FC01890
:1030E000401002F0DBFA80231B06C118E0E7C0465F
:1030F000FA02002000401C46F4020020014B1A682E
:103100001A60704710023A4010B500213220FFF7D4
:1031100049FB074A074913680B40136000F095FA12
:103120002021054A13688B43136000F092FA10BD0A
:1031300000060240FFF7FFFF0000204010B500210D
:103140003420FFF72FFB074A074913680B40136031
:1031500000F07BFA4021054A13688B43136000F0AE
:1031600078FA10BD00060240FFFFF7FF0000204084
:1031700070B505000C00081E07D004F037FB2B6863
:10318000020021002800DB68984770BD10B5FFF7EA
:10319000EFFF10BD10B503689B68984710BD000095
:1031A00010B50249FFF7E4FF10BDC046C07800002B
:1031B000F0B58BB06B461400002205330600DA77B9
:1031C000012C00D80A2409AD0F002100380001F0BD
:1031D0009BFA03006343FB1ADBB21A00373201008B
:1031E000D2B2092B01D83033DAB2013D2A70BC4289
:1031F000EAD929003000FFF7BBFF0BB0F0BDF8B5EE
:1032000007000D00161E04D10368C9B29B689847D9
:10321000F8BD0A2A0CD100290BDA2D21FFF7BAFFDD
:103220003200040069423800FFF7C2FF2018EFE7C0
:10323000D2B229003800FFF7BBFFE9E7F7B51C0061
:1032400008AB1B7821000093070023001000150035
:1032500004F014F84A4900281ED1012266007608BD
:1032600028003100474B524204F008F8002809D1E9
:10327000012231002800434B524201F0F1FA424949
:10328000002809D0E02228002100404B120601F05E
:10329000F1FA002806D03E493800FFF769FF060022
:1032A0003000FEBDE022280021003A4B120601F05A
:1032B000CDFA0028EFD1002200232800210001F0E0
:1032C000C5FA002814D02D213800FFF763FF8023B2
:1032D0001B060190E418002600202F49009BB342F2
:1032E00008D000222D4B013602F0C4FDF6B2F5E7FE
:1032F0000190F0E72A00230002F052FA0D000400CA
:1033000001F046FB060004F03DF80B000200290026
:10331000200003F021FC0A2204000D0038003100D7
:10332000FFF746FF019BC618009B002B04D0380016
:103330001B49FFF71DFF3618009B013BDBB20093D2
:10334000FF2BADD0154B00222000290003F098F987
:103350000D00040003F0B0FF0A22010001903800C4
:10336000FFF74DFF3618019803F0DCFF02000B0059
:103370002000290003F0F0FB04000D00DCE7C0464C
:10338000C3780000FFFFEF7FC7780000FFFFEF4129
:10339000CB780000FFFFEFC10000E03F00002440B9
:1033A000CF78000037B506990400C9B20091FFF745
:1033B00045FF05002000FFF7F3FE40193EBD10B5A4
:1033C0000400FFF7CFFAE060236820005B699847AC
:1033D000002808DAFFF7C6FAE368C01AA368984223
:1033E000F2D30120404210BDF8B506000D001700D1
:1033F0000024BC4207D03000FFF7E1FF002802DBC9
:1034000028550134F5E72000F8BD000070B50D0027
:103410000749040000F060F82800FFF7D0FF0028FB
:1034200004DBC1B2200000F083F8F5E7200070BD96
:10343000C278000010B504000068002801D004F034
:10344000EDF8002323606360A36010BD0F231031EB
:1034500070B59943040000684E1E04F0A3F9051EE0
:103460000CD0A368B3420AD26068B04204D2321AC8
:103470000021281804F0E5F8012060C470BD002385
:103480008355A660F8E7036810B50400002B04D04C
:1034900043688B4201D3012010BD2000FFF7D6FF07
:1034A0000028F9D0A368002BF5D122681370F2E749
:1034B00070B50E00110004001500FFF7E4FF0028AE
:1034C00004D12000FFF7B6FF200070BD3100206856
:1034D000A56004F083F9F7E7002370B504000D0040
:1034E000036043608360994207D0080004F07EF9CE
:1034F000290002002000FFF7DBFF200070BDF8B5B7
:1035000004000E1E02D100273800F8BD0127002A52
:10351000FAD08368D5182900FFF7B5FF0028F2D04C
:103520002368A2683100981804F058F9A560EBE709
:1035300007B56B466A461971002301A95371012230
:10354000FFF7DDFF0EBD00001022014B1A6070472F
:1035500080E100E010B500F0F1FEFEF765FFFEF738
:1035600081FFFCE710B504F02FF803680C2B00D1A5
:10357000FEE7FEE7030010B580240849084A086802
:103580006401C3189A1AA24201DC0B6010BD04F05A
:103590001BF80C23036001204042F7E7BC00002029
:1035A000F8030020F8B500240E490F4B002904D180
:1035B00004F010F8FFF7CEFFFEE700221F685868FE
:1035C0009E688518B24206D10022D868824206D190
:1035D00010330139EAE7BD5885500432F1E7AC50A9
:1035E0000432F3E701000000C07A0000002370B548
:1035F0000B480C4C0C4D21009A00032B00D8A95805
:10360000013381502C2BF6D1FEF70EFE074B1A68C2
:10361000002A00D11A608022054B92051A6070BD05
:10362000000000206535000000220000B0000020EE
:1036300008ED00E0000000000230800803D00130F7
:103640000238FCD1C046C0467047EFF3108072B616
:10365000704780F310887047012202200A4B1968D6
:1036600091431960196881431960084B2E3019681D
:103670008143080010210143072019601968814324
:103680000A431A607047C04600002240000F2240E3
:1036900010B5FFF7E1FF8023024A1B0611680B43B8
:1036A000136010BD00002240014B1868C00F704726
:1036B00000002240014B024A1A6070473800034064
:1036C0006588EDAC70B5154E04003368144D9B0F42
:1036D0009B07984215D003222B687C2093432B60D4
:1036E00033689B0F00D0903000F01CFBFFF7ADFF5C
:1036F0003368A40F9B009B08A4071C433460FFF7AA
:10370000A8FF03222B6893431A0033689B0F59428A
:103710004B41013313432B6070BDC0460C02224065
:103720001402224010B50400022802D9002000F043
:1037300023FA044BE40018680134E04001231840E8
:1037400010BDC0461002224070B505000C000228D2
:1037500002D9002000F010FA012C02D9002000F05C
:103760000BFA2800FFF7DEFF00280AD1012108002C
:10377000ED00A8400C40AC40024A136883431C4350
:10378000146070BD0C02224070B504000D000128C9
:1037900002D9002000F0F0F92000FFF7C3FF002855
:1037A00009D10122E4000234A240A540024B19686D
:1037B00091430D431D6070BD0C0222400C4B1A68F2
:1037C00002431A60C20703D5022219681142FCD0D5
:1037D000C20504D58022920019681142FCD0C203B0
:1037E00004D58022920219681142FCD07047C0466D
:1037F000100222400C4B1A6882431A60C20703D59C
:10380000022219681142FCD1C20504D5802292001F
:1038100019681142FCD1C20304D5802292021968B2
:103820001142FCD17047C0461002224009490200F3
:1038300008680B6809685B0A40080343490C0B439E
:10384000DB0705D4044B054918680840104318608D
:103850007047C046100222400C022240F7F7FFFFDB
:1038600070B504000E00012802D9002000F084F990
:103870000C4DC9202B689B0F00D06C3800F052FA19
:10388000094A2401A240A640084B432019689143ED
:10389000314319602B689B0F00D0243800F042FAA6
:1038A00070BDC0460C022240FFFF0000080222400B
:1038B000074B1B689B0309D4064A07491368000697
:1038C0000B40F82149050840184310607047C04676
:1038D000100222400C022240FFFFFFE010B5012839
:1038E00007D0022809D000280AD1084B186880B2F6
:1038F00010BD064B1868000CFAE7054B1868F7E78F
:10390000002000F039F90020F2E7C0460002224012
:103910000402224010B50400FFF797FE054A06494D
:1039200013680B4005490C40234313601368FFF7ED
:1039300090FE10BD10022240FBFBFBFF04040400BC
:1039400010B5022804D8054A83009858995010BD34
:10395000002000F011F90020F9E7C046FC02002029
:1039600010B502280BD80849084B80000A68C358D4
:103970009A430A60064A11680B43136010BD002089
:1039800000F0FAF8FAE7C04608030020D4780000F7
:10399000C000002010B5022807D8064A064980005A
:1039A000136841588B43136010BD002000F0E4F809
:1039B000FAE7C046C0000020D4780000042370B5A8
:1039C000374C22681A4221D036490A681A421AD066
:1039D000354A156808681D40A84308601168334DD2
:1039E00099432B681160002B0DD001212120FEF797
:1039F000D9FE2F4B1B78002B03D002211920FEF794
:103A0000D1FE2B6898470420FFF784FF80252368A8
:103A1000ED002B4223D0234A13682B421BD0224BAC
:103A2000186811682840814311601A6821491F4DA8
:103A30000A401A606B68002B0DD001212120FEF78F
:103A4000B1FE1B4B1B78002B03D002211920FEF77F
:103A5000A9FE6B6898478020C000FFF75BFF8023BA
:103A60002268DB021A4219D00E4A12681A4211D09B
:103A70000E4CA368002B0DD001212120FEF792FEF1
:103A80000B4B1B78002B03D002211920FEF78AFE76
:103A9000A36898478020C002FFF73CFF70BDC04676
:103AA00010022240C000002008030020FC02002079
:103AB000B4020020FFFBFFFF044B054A19681040C9
:103AC0000843186019681142FCD170471002224067
:103AD00008080800024A034913680B401360704746
:103AE00000002240FFFFFFBF024B18684000C00FDC
:103AF0007047C046000022401B2800D901BE034B7E
:103B00008000C318186819607047C0464000002044
:103B1000F8B504000D00032900D901BE1B2C00D903
:103B200001BE032726003E40BE400636B740B540E2
:103B3000FFF78BFDA408054BA400E4182168B943E6
:103B40000D432560FFF785FDF8BDC04600E400E0A9
:103B50001F2318401E3B8340014A13607047C04634
:103B600000E100E01F2318401E3B8340014A136020
:103B70007047C04680E100E001BE704770B5802507
:103B800004002D02AC4205D8064B18686043FFF7CD
:103B900053FD70BD044B1868FFF74EFD034BE4184E
:103BA000F0E7C046CC000020C40000200080FFFFEA
:103BB00037B5FFF779FD002832D0FFF746FD1C210D
:103BC000204B80251A68204B92001B680A408B40CE
:103BD00018329B0FDA401D4904000B681C48ED01A8
:103BE00018401C4B53435B19DB0B013B0343192A61
:103BF00017D8194A1343194D0B602B6830200193D5
:103C000000F026FC8023164ADB05116814200B43C4
:103C10001360FFF7B3FF019B20002B60FFF719FD36
:103C200037BD1048101805780F4882181A3A1278D4
:103C30005219FF2A00D9FF2292051343A0225203F2
:103C4000D8E7C046080F0340280003400800224080
:103C500000F800C040420F000000D43F3000104088
:103C6000000022404DF3FF0FE0780000F7B506009A
:103C7000183E0400182E03D8234BF340DB0701D471
:103C800001BEF7BDFFF7E1FC0190FFF72DFF0090AB
:103C9000002803D0FFF71EFF0123009307277F2092
:103CA0001A4D1B4A2B681B49BB432B601A4BE31868
:103CB0001B78DBB21360194A1368BB431360184AC0
:103CC0000B68A21812788343024013430B604D38EF
:103CD000FFF7B2FC182C0ED028681C3CA408B8438F
:103CE0003C4004432C603220FFF7A6FC2B68B6084A
:103CF000BB431E432E60009B012B01D1FFF758FFF1
:103D00000198FFF7A6FCBCE711111101080F034051
:103D10000C0F0340180F03404DF3FF0F100F03402B
:103D200034F3FF0F10B5034B1B785843FFF784FCA7
:103D300010BDC046D000002010B500240C4B0D4A29
:103D40001C605C609C60DC601C610B4B1A6004238F
:103D50000A4A11680B43FA211360094B890018685D
:103D600000F0D2FC074B1860074B1C6010BDC0462A
:103D70000C030020E13D00003C00002010E000E0CA
:103D8000C800002014E000E018E000E00223024A2E
:103D900011680B431360704710E000E010B5FFF7A7
:103DA000F5FF0123024A11680B43136010BDC046A2
:103DB00010E000E010B5054C2368002B03D1FFF79D
:103DC000BBFF01232360FFF7E9FF10BD20030020A4
:103DD000024B1868C003C00F7047C04610E000E0F7
:103DE00010B5FFF7F5FF012809D10024044BA2000C
:103DF000D358002B00D098470134052CF6D110BDC4
:103E00000C030020024A83009858D1507047C046E6
:103E10000C030020134B1A78134BD2B202601B78AC
:103E20001B021A43114B02601B781B041343104AF8
:103E3000036012781206134303600E4B1A780E4B80
:103E4000D2B242601B781B021A430C4B42601B78B3
:103E50001B0413430A4A436012781206134343605B
:103E60007047C04678F2FF0F79F2FF0F7AF2FF0F2A
:103E70007BF2FF0F7CF2FF0F7DF2FF0F7EF2FF0F50
:103E80007FF2FF0F8022034B52001A60024B034A5D
:103E90001A66704780E100E00000002065350000F0
:103EA000014B18687047C04640032540024B186814
:103EB0001F2318407047C046080325408022054B49
:103EC000520219680A431A601A6803490A401A60C4
:103ED0007047C04604032540FFFFFEFF1F22044930
:103EE0000B681340082BFBD0024B18607047C0468C
:103EF0000802254040022540024B18681F23184045
:103F00007047C046080225408022054B52021968BE
:103F10000A431A601A6803490A401A607047C0468B
:103F200004022540FFFFFEFF10B500F09DF810BD14
:103F300070B50024072104251E4B1F4A08201A6073
:103F40001E4B1F4A1C601F4B1A601F4B1F4A1360F9
:103F50001F4A11601F4A063914601F4A11601F4A28
:103F600013601F4B1C601F4B1D60FFF7FBFD210002
:103F70000820FFF7CDFD1C490820FFF7BDFD0320F9
:103F8000FFF7F0FD03210800FFF7C2FD17490320EA
:103F9000FFF7B2FD164B1C60164B1C60164B1C60E5
:103FA000164B1C60164B1D60164B1C601A68164B96
:103FB0001A8070BD000025400C0000024000254022
:103FC00001000A004800254007000080000325404A
:103FD00004032540100325404400254000022540ED
:103FE0000402254050002540DD450000293F000027
:103FF000880E2540C80E2540480F2540080F254053
:10400000C80F2540880F2540B6020020F02206493F
:104010000B6893431A00902313430B60034B1A88D9
:10402000034B1A607047C04600030240B6020020EE
:10403000880F254010B5FFF739FF00280DD0FFF796
:104040002FFF0300D821064A890010681160D8228A
:10405000000292021040184310BD024B1B68F1E7AA
:10406000C00F2540400325400122024B1868104034
:104070001860704710030440014B18687047C04631
:1040800040032840024B18681F2318407047C04661
:10409000080328408022054B520219680A431A601F
:1040A0001A6803490A401A607047C0460403284052
:1040B000FFFFFEFF1F2204490B681340082BFBD0B3
:1040C000024B18607047C046080228404002284052
:1040D000024B18681F2318407047C046080228404A
:1040E0008022054B520219680A431A601A68034974
:1040F0000A401A607047C04604022840FFFFFEFFD6
:1041000070B50024194B1A4A04251A60194B1A4A33
:104110001C601A4B1A491A601A4B1B4A0B20136079
:1041200001220A6019490C6019490A60194A136092
:10413000194B1C60194B1D60FFF714FD03210B2068
:10414000FFF7E6FC16490B20FFF7D6FC154B1C6069
:10415000154B1C60154B1C60154B1C60154B1D60EE
:10416000154B1C601A68154B1A8070BD0000284062
:104170000C0000024000284001000A0048002840CE
:104180000403284007000080000328401003284053
:1041900044002840000228400402284050002840E3
:1041A000F1450000880E2840C80E2840480F2840DE
:1041B000080F2840C80F2840880F2840DE03002041
:1041C000024B1A88024B1A607047C046DE0300207B
:1041D000880F284010B5FFF755FF00280DD0FFF7D6
:1041E0004BFF0300D821064A890010681160D822CD
:1041F000000292021040184310BD024B1B68F1E709
:10420000C00F28404003284037B501250024019500
:104210000095002306222321094800F0B5F82A0062
:104220002300272107480194009400F0ADF82A00EC
:104230002300262104480194009400F0A5F837BD1E
:1042400088030020300300203C03002037B5002401
:10425000114D06212878FEF7A5FA142000F0F4F895
:104260002300280006222F210194009400F08CF8EE
:10427000282000F0E9F80123062228002F210193CD
:104280000094230000F080F8142000F0DDF8287876
:104290002100FEF787FA37BD2403002010B503483C
:1042A00000F07FF80128FAD010BDC046300300208E
:1042B00070B572B60A4C0021200000F06EF8094D6E
:1042C000C021280000F07CF80021280000F078F8D8
:1042D0000121200000F061F8FFF7E0FF62B670BD39
:1042E0008803002060030020F7B515000C00019042
:1042F00000F080F80E4E0021300000F04EF86B46C2
:104300000C4F9988380000F05BF86519AC4209D170
:104310000121300000F041F8019B842B01D0FFF710
:10432000BDFFF7BD2178380000F04AF80134EDE711
:1043300088030020600300207047704710B500F02C
:1043400035F8FEF7D3FBFEF74FFBFEF70BFB0D4BEB
:10435000062118601A20FEF725FA01211A20FEF71F
:104360002FFA01211B20FEF71DFAFFF74DFF0A204F
:10437000FEF7F4FAFFF76AFF0A20FEF7EFFA00F003
:104380005BF810BDB802002037B506AC2478079D55
:104390000094019500F040F937BD10B500F032F9F6
:1043A00010BD10B500F047F910BD000010B500F0C9
:1043B00085F80022014B1A6010BDC0460003014081
:1043C00010B50C0000F002F90028FBD12000F62403
:1043D00000F0EEF8FF3400F0E3F8002803D000F01E
:1043E000D9F880B203E0013C002CF4D1004810BDA4
:1043F000FFFF000010B5074B1A78002A02D01B7887
:10440000062B03D1FFF754FFFFF796FFFFF746FF98
:1044100010BDC046D003002013B501AC2070FFF7DB
:104420008CFF012221008420FFF75EFF0022014B58
:104430001A7013BDD003002010B50420FFF7ECFF65
:104440000220FEF78BFA10BD10B5FFF797FB10BDE9
:1044500070B50400FFF7F9F80500102C08D8032107
:104460000F4A13688B4313602800FFF7F2F870BD02
:10447000202C08D803220A490B6893431A00012311
:1044800013430B60F0E7302C06D8032204490B6875
:1044900093431A000223F3E70020FFF76DFBE3E7E5
:1044A000300010408023044A10B511681B060B43EE
:1044B000136000F011F810BD0000244010B5054C49
:1044C0002378002B03D100F021F801232370FFF79C
:1044D000E9FF10BDD4030020024B1A88024B1A607A
:1044E0007047C046D2030020880F2440054A064981
:1044F000136880060B40C02109050840184310606E
:104500007047C04620002440FFFFFFF30721002032
:10451000104B114A10B51A60104B114A1A60114B1A
:10452000114A1360114A1160114A1360114B18604F
:10453000114B1860114B1860114B1860114B18602B
:10454000114B1860114B18601A68114B1A80FFF755
:10455000CDFF10BD000024400700000120002440D2
:104560000100008007010080000324400403244070
:104570000002244004022440880E2440C80E244037
:10458000480F2440080F2440C80F2440880F2440BF
:10459000D2030020014B18687047C04640032440F6
:1045A000024B18681F2318407047C0460803244078
:1045B0001F2204490B681340082BFBD0024B1860E4
:1045C0007047C0460802244040022440024B18684D
:1045D0001F2318407047C04608022440034B10B503
:1045E0001B68002B00D0984710BDC046B0020020C9
:1045F000034B10B51B68002B00D0984710BDC04678
:10460000D8030020007810B540B2431C03D0C9B2D3
:10461000C0B2FEF7D5F810BD10B5040008001100B7
:104620002070431C06D0C0B2FEF7BCF820000399EE
:10463000FFF7E8FF10BD0023C35610B500205A1C39
:1046400002D0D8B2FEF7F0F810BD030010B5080094
:10465000190002F0ABFF10BD10B500F001F810BD5D
:1046600010B502F0DBFF10BD8021064A10B51368BB
:1046700009060B4313600B20FFF76AFAFFF7A0FD52
:1046800010BDC0460000284010B52420FEF7EAF80F
:104690002520FEF7E7F8124A124B116824200B4040
:1046A000992109040B4313600121FEF77BF80621D1
:1046B0002520FEF777F800212420FEF781F801215C
:1046C0002520FEF77DF8084C2378002B03D1FFF757
:1046D00017FD01232370FFF7C7FF00F007F810BD97
:1046E00000040240FFFF00FFDC0300208022034B98
:1046F00012011A60024B034ADA66704780E100E05B
:104700000000002065350000002243088B4274D36E
:1047100003098B425FD3030A8B4244D3030B8B42C2
:1047200028D3030C8B420DD3FF22090212BA030CCB
:104730008B4202D31212090265D0030B8B4219D3AC
:1047400000E0090AC30B8B4201D3CB03C01A5241CC
:10475000830B8B4201D38B03C01A5241430B8B4214
:1047600001D34B03C01A5241030B8B4201D30B03FD
:10477000C01A5241C30A8B4201D3CB02C01A524124
:10478000830A8B4201D38B02C01A5241430A8B42E7
:1047900001D34B02C01A5241030A8B4201D30B02D0
:1047A000C01A5241CDD2C3098B4201D3CB01C01AEA
:1047B000524183098B4201D38B01C01A52414309F4
:1047C0008B4201D34B01C01A524103098B4201D3E2
:1047D0000B01C01A5241C3088B4201D3CB00C01A4F
:1047E000524183088B4201D38B00C01A52414308C7
:1047F0008B4201D34B00C01A5241411A00D20146EC
:10480000524110467047FFE701B5002000F006F85E
:1048100002BDC0460029F7D076E770477047C04612
:104820008446101C62468C46191C634600E0C04654
:104830001FB501F0B5FE002801D40021C8421FBDFC
:1048400010B501F0FFFD4042013010BD10B501F080
:10485000A7FE002801DB002010BD012010BDC046CE
:1048600010B501F09DFE002801DD002010BD0120E3
:1048700010BDC04610B501F021FE002801DC00206B
:1048800010BD012010BDC04610B501F017FE002874
:1048900001DA002010BD012010BDC0468446081C6E
:1048A0006146FFE71FB500F0ADFB002801D40021F1
:1048B000C8421FBD10B500F031FB4042013010BDB1
:1048C00010B500F09FFB002801DB002010BD012087
:1048D00010BDC04610B500F095FB002801DD00209A
:1048E00010BD012010BDC04610B500F03FFB0028F0
:1048F00001DC002010BD012010BDC04610B500F045
:1049000035FB002801DA002010BD012010BDC04693
:10491000F0B515042D0C0F0001002E00C64684468C
:104920000004140C000C090C46434D4360436143E2
:104930004019340C241800B5A54203D98020400248
:1049400080464144250C6D18614659437A43300432
:1049500049192404000C2018891804BC9046F0BDA5
:104960009E2110B5C905041CFFF7C8FF002803D11C
:10497000201C00F073FE10BD9E21201CC90500F014
:10498000A5FC00F06BFE80231B069C466044F2E70A
:1049900070B500220C4B04000D00FFF775FF0028D6
:1049A00004D12000290002F087FC70BD064B0022D4
:1049B0002000290002F0D0F802F07EFC80231B06C4
:1049C0009C466044F1E7C0460000E041F0B5464631
:1049D000D6464F464D024202C0B5520A6E0A470003
:1049E000B0463F0E4E00C40FD00094463B008246B6
:1049F000360EC90FAD098C426DD0B81B8146002818
:104A00004DDD002E00D188E0FF2F5AD08023DB043B
:104A10001D434B4601221B2B0ADC2B004A4649460C
:104A2000D3402022521A95402A00551EAA411A430B
:104A300053469A1A530100D4B9E092019609300006
:104A400002F096FD05388640874200DDD4E0330051
:104A5000C71B20200137FB40C71BBE403200561E3B
:104A6000B24100271A43530704D00F231340042BED
:104A700000D00432530100D49CE07B1CFE2F00D1F7
:104A80009AE09201520A9446DBB2D8056346E407E5
:104A9000184320431CBC90469946A246F0BD00280E
:104AA00049D0F31B002F00D0B6E05246002A60D058
:104AB000013B002B00D1FCE0FF2E00D0B4E00C0045
:104AC0004246002A78D08020C00310434202530A95
:104AD0009C46FF23D9E7B91B002971DD002E3FD08A
:104AE000FF2FEED08023DB041D4301221B2907DCAE
:104AF0002A002023CA40591A8D406B1E9D412A432B
:104B00005244530153D50137FF2F55D001237B4920
:104B1000134052080A401A43A5E7002D2CD0012368
:104B20005B429C46E1444B46002B00D1ADE0FF2F99
:104B300000D06EE7C5E7FE207E1C304260D1002F1A
:104B400000D093E05246002A00D1B6E0002D9CD060
:104B5000521B500100D4C3E053460C00EA1A82E70E
:104B6000002D09D00139002900D18BE0FF2FBCD1E5
:104B7000A7E70C0042463700FF2FA2D05202530A8B
:104B80009C46FBB281E7FE210137394265D1002BFB
:104B90007ED1002800D1AAE0002D00D175E72A00BF
:104BA00052440027530102D5554B01371A40530791
:104BB00000D05AE7D208DFE70022FF23944664E7DB
:104BC0000029E0D0F31B002F3ED0FF2E00D177E765
:104BD00080220100D20411438A4601221B2B08DCEB
:104BE000524620215046DA40CB1A9840431E984145
:104BF00002433700521984E7414A3F1A324032E7F4
:104C000053465E1B73012DD4002E00D017E70022FF
:104C100000240023944638E7FF2E00D14FE780227E
:104C20005046D2041043824601221B2B08DC524618
:104C300020245046DA40E31A9840431E984102432C
:104C40000C003700AA1AF5E6002893D0013B002B90
:104C50004FD0FF2EC1D1424633E7FF2FACD0554491
:104C60006A08A4E753460C00EE1AE8E65346002B08
:104C700028D1002D00D022E78023DB039C460024AE
:104C8000FF2302E72A0052443BE753465A1BD1E672
:104C9000002800D114E7002D00D112E78023DB03A8
:104CA0001A4200D10DE74146194200D009E74246B9
:104CB00007E70C003700AA1ABCE6002D13D00C0041
:104CC000C446E2E6002D00D1FBE68023DB031A4256
:104CD00000D1F6E64046184200D0F2E60C00EFE6BE
:104CE000002A00D063E7002200249446CDE6C446A3
:104CF000CBE62A003700524403E7C046FFFFFF7DA2
:104D0000FFFFFFFBF0B54F464646D6464502C0B50D
:104D100047000C1C6D0A3F0EC60F002F66D0FF2FF8
:104D20006CD00023EA00802599469A46ED0415438D
:104D30007F3F60026100430A9846090EE40F002994
:104D400048D0FF2910D08022D800D20402439046D8
:104D500000207F394A4633007F1A02436C49920093
:104D60008A586340DBB29746002B6DD10220FF3F8B
:104D700033E0002398462600454682465346022BE0
:104D800000D17FE0032B00D194E0012B17D0380035
:104D90007F3000285FDD6B0704D00F232B40042BEE
:104DA00000D004352B0103D538005A4B80301D400C
:104DB000FE2867DCAD016D0AC0B202E01E000020D3
:104DC0000025C0052843F60730431CBC9046994691
:104DD000A246F0BD002B2BD101204A4633004E499C
:104DE000024392008A586340DBB29746002D13D1EC
:104DF00004239946033B00279A469AE7002D05D1E4
:104E000008239946063BFF279A4692E70C239946CA
:104E1000093BFF279A468CE7280002F0A9FB76277A
:104E2000431F9D4000237F4299469A463F1A80E7E0
:104E3000180002F09DFB4246431F76219A404942EA
:104E4000091A9046002085E7FF21032082E71E0013
:104E5000FF200025B5E701231B1A1B2BAFDC9E3773
:104E60002900BD40D9406A1E95410D436B0704D00F
:104E70000F232B40042B00D004356B0144D50120B7
:104E800000259EE7FF2000259BE780250026FF20C8
:104E9000ED0396E7002398468020C003054209D021
:104EA0004346034206D1454605436D022600FF20D6
:104EB0006D0A86E78020C00305436D02FF206D0A5E
:104EC0007FE741466A014801824219D21B21002531
:104ED000013F012614006D005200002C01DB9042BE
:104EE00001D8121A354301390029F3D1501E8241ED
:104EF00038007F301E001543002800DD4BE7AAE78D
:104F00001A210125121AE4E7AD0100206D0A58E7C5
:104F1000F8780000FFFFFFF73879000070B5420015
:104F20004E024C0045026D0A120EC30F760A240E83
:104F3000C90FFF2A0FD0FF2C11D00120A24200D0B0
:104F400070BDB542FCD18B420DD0002AF8D12800AB
:104F5000451EA841F4E70120002DF1D1EBE7012027
:104F6000002EEDD1E9E70020EAE7C046F0B54200A7
:104F700046024D024C00C30F760A120E6D0A240E33
:104F8000C80FFF2A1FD0FF2C10D0002A1FD171425A
:104F90007141002C01D1002D1ED000290ED1834279
:104FA0001ED00221581E08400138F0BD002D26D128
:104FB000002AF4D1714271410029F0D00028F4D1C7
:104FC00001204042F1E7002E19D1FF2CEED0002C39
:104FD000E5D1002DE3D1E4E70020002EE5D0E0E7A5
:104FE000A24205DCEADBAE4202D8E7D30020DCE7D0
:104FF000414241414842022108400138D5E70220A0
:105000004042D2E7F0B5420046024D024C00C30FC9
:10501000760A120E6D0A240EC80FFF2A0DD0FF2C3F
:105020000FD0002A23D171427141002C0FD1002DE5
:105030000DD10020002E14D00DE0002E10D1FF2C39
:1050400015D1002D0CD1002A03D1714271410029E4
:1050500008D1834210D00221581E0840013800E0D8
:105060000220F0BD0028FCD101204042F9E7002CCD
:10507000EFD1002DEDD1EEE7A24205DCF2DBAE422E
:1050800002D8EFD30020ECE74142414148420221DF
:1050900008400138E5E7C046F8B557464E46454654
:1050A000DE464402E0B545000F1C640A2D0EC60F13
:1050B000002D47D0FF2D4DD0002380209A469B46DF
:1050C000E400C00404437F3D7802430A99467A0015
:1050D000FB0F9846120E4B4644D0FF2A11D0D80041
:1050E0008023DB040343994600207F3AAD184746EE
:1050F00053467740691C0F2B3FD8724A9B00D35808
:105100009F46FF35002B00D079E0524602231A4318
:1051100092460220EBE747464C4683465B46022B0D
:1051200028D0032B00D1C6E0012B4FD10020002452
:10513000C005FF07204338433CBC90469946A24631
:10514000AB46F8BD002C71D104239A46033B0025E1
:105150009B46B9E7002C63D108239A46063BFF25FE
:105160009B46B1E7002B50D1524601331A43924679
:105170000120BCE7FF200024DAE74846260C24047F
:10518000220C0404240C4B4620001B0C5043744397
:105190005A435E431219030C9B189C4203D9802288
:1051A00052029446664400041A04000C121894013A
:1051B000601E84411B0C920E9B1914439B011C43DF
:1051C0001B0172D50120630804401C4308007F3096
:1051D00000283CDD630704D00F232340042B00D0BC
:1051E0000434230103D580310800374B1C40FE28CE
:1051F000C0DCA401640AC0B29AE737008EE75246C9
:1052000003231A439246032071E7484602F0B0F99F
:105210004A46431F9A402D1A91460020763D66E784
:105220000C239A46093BFF259B464DE7200002F0E0
:105230009FF97625431F9C4000236D429A469B466A
:105240002D1A41E780240027FF20E40370E70123A3
:105250001B1A1B2B00DD69E79E3120008C40D840D3
:10526000631E9C410443630704D00F232340042B97
:1052700000D0043463011AD50120002458E78020AF
:10528000C003044209D04B46034206D14C460443B6
:1052900064024746FF20640A4AE78020C0030443B3
:1052A00064023700FF20640A42E729008EE7A40168
:1052B0000020640A3CE78020C00304436402FF200E
:1052C000640A35E778790000FFFFFFF7F0B546463E
:1052D000D6464F4643025B0ADA0094464A02C0B5FE
:1052E0004400560A051CB046240E4E0092091F00C9
:1052F00020009246ED0F360EC90FFF2E00D17FE041
:10530000012251408D4251D0A21B9146002A00DC5F
:105310007EE0002E00D199E0FF2C00D18CE08023AC
:105320005246DB041A4392464A4601231B2A08DCF4
:1053300053462021D340891A52468A40511E8A4141
:1053400013436246D31A5A0100D4F3E09B019E092D
:10535000300002F00DF905388640844200DDF7E0A8
:105360003200041B20200134E240041BA64033001D
:105370005E1EB341002413435A0704D00F221A4083
:10538000042A00D004335A0100D4D6E0621CFE2C5B
:1053900000D1DAE09B015F0AD0B2C0053843ED07C7
:1053A00028431CBC90469946A246F0BDA21B9146DC
:1053B000002A63DD002E00D199E0FF2C3CD0802331
:1053C0005246DB041A4392464A4601231B2A08DC54
:1053D00053462021D340891A52468A40511E8A41A1
:1053E000134363445A0100D4A4E00134FF2C00D1DC
:1053F000ABE0012297491A405B080B401343BBE71F
:10540000002A32D08D4235D0FF2252429146A1442B
:105410004A46002A51D0301B002C00D09CE0634645
:10542000002B00D1DFE00138002800D1F7E0FF2E8B
:1054300000D099E00D004346002B00D185E0802785
:10544000FF031F437F02FF207F0AA6E75246002A80
:1054500074D0012252429046C1444A46002A00D1EB
:10546000C8E0FF2C00D05FE7E6E701225140A942E7
:1054700000D049E7FF2252429146A1444A46002A01
:1054800043D0311B002C00D18CE0FF2E00D192E0E4
:1054900080236246DB041A43944601231B2909DC5E
:1054A000202063466246CB40411A8A401100481EC4
:1054B00081410B433400534494E7FE22661C324280
:1054C00064D1002C00D082E06346002B00D1ABE019
:1054D0005346002B00D160E7634652469B1A5A019F
:1054E00000D4AAE0634652460D00D31A44E7524660
:1054F000002A23D0012252429046C1444A46002A43
:1055000075D0FF2C00D05FE796E7FE2601342642D7
:1055100053D1002872D16346002B00D193E053464B
:10552000002B00D139E7634400245A0102D54A4ACE
:10553000013413405A0700D020E7DB08FF2C00D1CC
:105540007AE75B025F0AE0B227E7FF20002724E743
:10555000414B241A33400FE7FF2E00D16AE7802326
:105560006246DB041A43944601231B2809DC2024ED
:1055700063466246C340201A82401000441EA04188
:10558000034352460D003400D31ADCE6634652460C
:105590009E1A730117D4002E00D0D9E600250020F2
:1055A0000027FAE66346002B44D0013900294CD08D
:1055B000FF2E00D071E743463EE7FF2CC5D0524690
:1055C00062445308B6E763460D00D61AC0E6624649
:1055D000002A16D15346002B00D02BE78027002548
:1055E000FF20FF03D9E60D0043463400A6E75346EB
:1055F0006344F7E6634652469B1AA4E66246002AD5
:10560000D9D05246002A00D116E78022D203134295
:1056100000D111E74046104200D00DE70AE752469C
:105620000D003400D31A8EE65346002B08D00D002F
:105630004746B2E64346340080E7002B00D079E7C6
:1056400000250027A9E64746A7E6534634006344F1
:10565000C8E6C046FFFFFF7DFFFFFFFB410242009F
:10566000C30F490A0020120E7E2A03D99D2A02D9AF
:10567000094A98187047802000040143952A07DCE6
:105680009620821AD1404842002BF3D10800F1E75E
:10569000963A9140F7E7C046FFFFFF7F70B50028BC
:1056A00013D0C317C5185D40C40F280001F060FF78
:1056B0009E2301001B1A962B0FDC082801DD0839F8
:1056C0008D406D026D0AD8B202E000240020002552
:1056D000C0052843E407204370BD992B0BDD05224C
:1056E0002E00121AD64002001B3295402800451E9B
:1056F000A84135000543052901DD4A1F95402A00D0
:10570000084E3240680709D00F202840042805D0F1
:105710000432500102D59F2332405B1A9201550A90
:10572000D8B2D5E7FFFFFFFB70B5051E0ED001F024
:105730001FFF9E2304001B1A962B0CDC082801DD9A
:10574000083CA5406D026D0AD8B201E0002000259A
:10575000C005284370BD992B09DD020029001B32CA
:1057600091404A1E91410522121AD5400D43052C45
:1057700001DD621F95402900084E31406A0709D0BB
:105780000F202840042805D004314A0102D59F2368
:1057900031401B1B89014D0AD8B2D9E7FFFFFFFB3F
:1057A000F0B54F46D64646460D0001001800C0B57C
:1057B00017002B035A0A4B0F1343CA0091460203EA
:1057C0006E004100520AEC0F7D0F1543760D490D16
:1057D000C00F8246AC46FF00721A844200D198E0A6
:1057E000002A00DC81E0002900D1B6E0C9498E42E0
:1057F00000D172E180212800090408438446382A38
:1058000000DD5EE11F2A00DDEEE120203900654663
:10581000801A8740D14085400D4339004F1EB94161
:105820006746D7402943DB1B4A46551AA94589419B
:1058300049425B1A984643461B0200D4CCE04346DB
:105840005B025B0A98464346002B00D12CE14046A0
:1058500001F08EFE01000839202228004346521A2A
:105860008B40D0408D4003438E4200DD17E18E1BFC
:10587000721C1F2A00DDA7E1202118002E00891AC2
:105880008D408840D640D340691E8D4130439846B4
:10589000002605436B0709D00F232B40042B05D0AE
:1058A0002B1DAB42AD416D42A8441D0043461B0277
:1058B00000D494E0974B721C9A4200D19DE041467F
:1058C000954BED0819400B00520549075B0229432F
:1058D0001B0B520D12051343E40723430800190064
:1058E0001CBC90469946A246F0BD002A43D08A1BB4
:1058F000002E00D02AE14C461C4300D1D1E1541EB9
:10590000012A00D11FE2834DAA4200D172E2220097
:1059100023E1002A00DC98E0002942D07D498E4234
:1059200000D1DAE080212800090408438446382A9F
:1059300000DD29E11F2A00DC87E1110065462039DE
:10594000CD40202A04D040206146821A91400F4366
:1059500039004F1EB9410D431BE12900394300D1E5
:10596000B5E0511E012A00D1ABE16A48824200D164
:10597000B2E10A0043E76949751C0D4200D0CFE04F
:10598000002E00D093E14946194300D1D1E1614690
:10599000394300D0E3E149465807C9080143DB0811
:1059A00026E02900394300D191E0511E012A05D09B
:1059B0005848824200D18FE10A00B8E73D004D44CB
:1059C0004D458941634498464942884443460226EE
:1059D0001B0200D5EBE0013E6B0700D05CE74346BD
:1059E000E9085A0711433200DB084A48824221D0B5
:1059F0001B0352051B0B520D6CE70023002169E7C6
:105A00002A003A4369D04A465807D108DA08802369
:105A10001B0308431A4207D02900ED081D4203D199
:105A20002A00FF0848073843430FC1005B07C90835
:105A3000194313000A001A4300D113E28022120313
:105A400013431B03334A1B0B44E7002A4BD08A1B2A
:105A5000002E00D1E7E02F48814200D195E180205F
:105A600000040343382A00DD43E11F2A00DDDBE1A7
:105A700020201D004E46801A8540D64035434E46B4
:105A800086403000D340461EB0419C440543ED198A
:105A9000BD429B415B42634498460E007FE01E4A34
:105AA000761A13409846F5E6280001F061FD0100E2
:105AB00018311F2900DCCFE62B0008388340002571
:105AC000D2E662463A4311004F1EB941ACE6494660
:105AD0005807C9080143DB0887E749465A07C90840
