:100000000040002011000000FD040000FD0400007D
:1000100010B501F039F900F035FC00F08FFA00005E
:1000200070B572B699221C4B1C4D1A601C4B953A48
:100030001A601C4B7C321A601B4B763A1A601B4AC2
:100040001B4B18201A6002221A4B00241A6012233C
:100050002B6001F071F8F022174B12011A60174A59
:10006000174B18491A604022174B0D201C60174B84
:100070001A6000F095FF0D2000F0BEFF144B200029
:100080001C6001F009F9112303222B60114B1A6047
:10009000114B1D321A6070BD000302403000104049
:1000A0000000044008000440000304403104000044
:1000B00008030440180304400003014040FF00808F
:1000C0000000014025130000280003400401014006
:1000D0000C02224030003040000E3F400000000083
:1000E0000000000000000000000000000000000010
:1000F0000000000000000000000000000000000000
:1001000010B5064C2378002B07D1054B002B02D0ED
:10011000044800E000BF0123237010BD4801002007
:1001200000000000FC1F0000084B10B5002B03D09E
:100130000749084800E000BF07480368002B00D1CA
:1001400010BD064B002BFBD09847F9E700000000DC
:100150004C010020FC1F0000B8000020000000003F
:1001600010B5054C200001F04FF820686368010BC2
:10017000000589B2184310BDAC010020F8B5FFF7A7
:10018000EFFF00250C0422002B00801859412B00A2
:10019000220C801A99410B04040C1C43584B594DF6
:1001A000E118594B0A091A40584B09011940584B9C
:1001B0000A43D21893082B40564D92002A4013430D
:1001C000554AAC46554E9B18554D5A085B00324077
:1001D0002B401343534A54499B18544A1F0A1B028D
:1001E0000F4013403B4307013A00F027504D3F03B7
:1001F0002B60504B174023401F434F4B4B4AFF1877
:100200003B0A3F0217400B404C4A3B439B183D4A78
:100210009F08DB43174062469B0013401F43484B37
:10022000394AFF18FB431B091340384A3F01174066
:10023000444A3B439B183A4A5F085B0037401340EF
:100240003B436B60F02307041B053B403E4F374A9E
:1002500027403B43F02707401F433C4B0002FF1859
:10026000FB433F021B0A17400B40394A3B439B1894
:100270001F09DB43244A1B011740244A13401F4334
:10028000344B204AFF18FF43BB0813406246BF00AF
:100290001740314A3B439B18214A5F085B003740B7
:1002A00013403B43AB602D4B1C40F0231B01184017
:1002B0000443E0436400400814400640284B2643B2
:1002C000F6183309F643104A360113400F4A164018
:1002D0001E43244B154AF618F34336021B0A1940F5
:1002E0003240214B0A43D218D243064993080B40AF
:1002F000614692000A401A431C4BD218EA60F8BDCE
:1003000059C9947F333333330F0F0F0FF0F0F0F0F0
:100310004E384E0ACCCCCCCCDC84235755555555A1
:10032000AAAAAAAA247BDCA8FF00FF0000FF00FF06
:10033000B4010020FFFFF0FF41BD4B3946F6AC3F52
:10034000DAE94D414299797E0FFFFFF02DB1F6B207
:10035000B2C3ED1B731F94F5DBAEE973FFF0FFFF33
:1003600038E47C2339DEC7D99A0FEC4100C1C62896
:100370000023F0B585B06946114A9A1812785A548C
:100380000133102BF7D1009B1FBA019B1EBA029BB1
:100390001DBA039B1CBAFFF7F1FE0A4B00201A6836
:1003A00097420AD15A68964207D19A68954204D179
:1003B000D868001B4342434158B2C0B205B0F0BDFB
:1003C000F0F7FF0FB401002010B590B040220B49A8
:1003D000684601F0D7F9002318006C4608495A42D4
:1003E00059180978A25C914201D00130C0B2013B9A
:1003F0001A004032F1D110B010BDC04600200000FC
:10040000FF27000010B50A2000F022FE094800F086
:1004100065F80A2000F01CFE8022074B52001A608B
:10042000064A074B1A604022064B1A6000F076FC21
:1004300010BDC046402000000003014041FF008085
:1004400000000140B000002010B500F0D1F800F02D
:10045000D1FF002811D1063000F0B4FF012000F0D8
:10046000BDFF00F0C7FF002803D100F0ABFFFFF78E
:10047000C9FF002000F0A6FF14E000F0DBFF002819
:1004800010D1063000F0BEFF012000F0C7FF00F0E1
:10049000D1FF002803D100F0B5FFFFF7B3FF002024
:1004A00000F0B0FFFFF764FF002805D0642000F0E3
:1004B000CFFD00F033FC08E0FFF786FF002801D1F4
:1004C00000F02CFC044800F009F8642000F0C0FDA6
:1004D00000F09CF8FEE7C046532000000FB400B5C2
:1004E000B5B036AA02CA02A8019201F075F902A8B5
:1004F00000F036F935B008BC04B0184710B501F06B
:1005000015F903680C2B00D1FEE7FEE7030010B5D8
:1005100080240849084A08686401C3189A1AA2424C
:1005200001DC0B6005E001F001F90C230360012000
:10053000404210BDBC00002018020020F8B5002584
:100540000F49104B01394A1C14D000221F685C6807
:100550009E68A018B24203D0B858A0500432F8E701
:100560000200DE68141AA64201D020C2FAE7103356
:100570000139E8E701F0E0F8FFF766FFFEE7C04663
:10058000010000001C210000002370B50B480C4C3A
:100590000C4D9A002100032B00D8A958013381503B
:1005A0002C2BF6D1FFF73CFD074B1A68002A00D12F
:1005B0001A608022054B92051A6070BD0000002071
:1005C000FD04000000000000B000002008ED00E085
:1005D0008021064A10B5136809060B4313600820F2
:1005E00000F00AFD00F096F810BDC046000025405E
:1005F00010B5054C2378002B03D100F01DF8012322
:100600002370FFF7E5FF10BD6401002010B508203E
:1006100000F0FCFC00F090F8054A082013685B002D
:100620005B0813600022034B1A6000F0F9FC10BD58
:1006300000002540880F254070B5002407210425BF
:100640001C4A1D4B08201A601C4B1D4A1C601D4B88
:100650001A601D4B1D4A13601D4A11601D4A063960
:1006600014601D4A11601D4A13601D4B1C601D4B18
:100670001D6000F0CBFC0321082000F09DFC1A490E
:10068000082000F08DFC194B1C60194B1C60194BA5
:100690001C60194B1C60194B1D60194B1C601A68BB
:1006A000184B1A80184B1C60184B1C60184B1C70A0
:1006B00070BDC0460C0000020000254040002540EF
:1006C00001000A0048002540070000800003254083
:1006D0000403254010032540440025400002254026
:1006E0000402254050002540E9140000880E2540F2
:1006F000C80E2540480F2540080F2540C80F25404B
:10070000880F25406C010020C8010020C401002092
:10071000CC010020F021054A13688B4360390B435C
:100720001360034B1A88034B1A60704700030240A2
:100730006C010020880F2540F021064A13688B4386
:100740001360054B1A68E423DB001340034A13804F
:100750007047C04600030240880F25406C0100200E
:1007600010B504000134631E1878002802D000F090
:10077000A1FEF7E710BD004770B506000D0014009C
:10078000002802D0002000F055FC00207519002C34
:1007900005D0013C2B191B78C018C0B2F7E770BD1B
:1007A000FF23020070B59A43C0B01300541C6A4680
:1007B000FF34D51A1E78EE540133A342FAD1C3B2E6
:1007C000D45C8C4205D0000AD15480B2110000F0F4
:1007D0003BFB40B070BD0000013810B50B2830D88D
:1007E0000902494200F002FF06080A0C0E1014121A
:1007F00016191B20174B13E0174B16E0174B0AE096
:10080000174B12E0174B0BE0174B09E0174B02E0B8
:10081000174B00E0174BC91817E0174B05E0174BB3
:10082000C9180878C0B214E0154BC9180A7848787E
:100830008C780002230418430300C8781343000691
:1008400006E0002000F0F6FB00210B78487800025B
:10085000184310BDC0FF0100C1FF0100C5FF01002A
:10086000C9FF0100D0FF0100D1FF0100D6FF010048
:10087000D2FF0100D4FF0100D8FF0100DCFF01001E
:10088000E0FF01000C4B10B51A68102313400B4A0F
:1008900000D113601368802B0DD1002402202100A9
:1008A0001460FFF799FFA04205D021000220FFF756
:1008B00093FFFFF760FF10BD54000340B00000201D
:1008C000F8B5010004000320FFF786FF21000600B1
:1008D0000420FFF781FF210007000620FFF77CFFBF
:1008E0000025012828D021000320FFF775FF0136DD
:1008F0003602F7192E0001300002B84209D20378FF
:100900005A1ED2B2FD2A00D80126ED18EDB20130F0
:10091000F3E721000120FFF75FFF6D42EBB20625F0
:10092000834209D1002E07D0044B24026042C01834
:100930000121FFF735FF00252800F8BDD1FF010098
:10094000F0B5C24CA54400F009FE62B6002700973E
:100950000197962103AC46ADFF23220049002800F1
:1009600000F004FE0028F4D12188062900D8AFE168
:100970002A780423012A5CD16E88F21D8A4200D9AC
:1009800086E0962149008A4200D981E0AA1992792D
:10099000172A4ED1F3189BB2002B08D0DCAAAC4921
:1009A000D21852181278013B801880B2F3E7AB19C5
:1009B0005A7940421B79120280B21A4308238242BC
:1009C00037D167E0342B00D0D6E0009B012B00D05C
:1009D0007EE1032E00D07BE180220021520091A80D
:1009E000802700F0D8FE7F00182191ABD819FF3185
:1009F00002ABF21EC91800F0C5FE0423F619FF333E
:100A0000B6B29E4200D01BE116228B21FF3202AB10
:100A10009B18490002AA521810781B78000218434C
:100A20008C4B0700984200D824E1FF3BFF3B00932A
:100A30000933002546A8012143702B0AC370002307
:100A400002AA06320170291D1580857089B200291D
:100A500009D0DCAC7E4E6418A419247801391B1926
:100A60009BB289B2F3E7DCA97B4C49195B420C19B4
:100A70009BB22370794C1B0A0C192370784B0735F5
:100A8000C91817230B70A9B27F3300F0A0FD60E7EF
:100A90000323CEE76B782C79180031380A282ED939
:100AA000704A1568002D26D0009A012A25D106AC7F
:100AB00002AA13725681002147AE0C22200005962F
:100AC00000F069FEA660210004A8A8472623A58897
:100AD000FF339D4202D9A368B34207D0A268002A1F
:100AE00001D1002D04D12368DBB2A3E70E23A0E7D8
:100AF0000E2315009EE705239CE7052399E700F0E8
:100B00007FFD0B001B00CFFF61FF4300CFFF4900BB
:100B10005D0061FF7B009200009B012B00D0D7E0BD
:100B2000002E00D0D4E03000FFF7CAFE434243411C
:100B30002B713300009D7DE7009B012B00D0C7E0A7
:100B4000012E00D0C4E0002C00D0C1E0464B1B6851
:100B50001B685A0CD2B2002A02D1DB03DB0D01E084
:100B600080239B002B711B0A6B71FF23AB71FE3B33
:100B7000EB71002304255DE7009B012B00D0A7E06B
:100B8000022E00D8A4E02FE7009B012B00D09FE0AD
:100B90000027DEE6009B012B00D099E02C33F519ED
:100BA000FF339D4200DD73E791ABD819320047A9AE
:100BB00000F0E8FD0023AFB21D003BE7062E00D099
:100BC00086E02A4A06AB94461000190014C814C1E6
:100BD0006246013EF6B29019A919007A0979884255
:100BE00076D1002EF5D147AA03CB03C201233700EB
:100BF0000093082533001DE7009B012B68D1032ECD
:100C000066D116228B21FF3202AB9B18490002AA43
:100C1000521816781B7836021E430E4B9E4259D945
:100C2000F63BFF3B05E70020FFF74AFE002802D114
:100C300080220F4B1A6000F095FC00F0FDF947E0B0
:100C400001230027009302333D00F3E68CFCFFFFF5
:100C5000A7FDFFFFFF010000ACFDFFFFADFDFFFFA3
:100C6000AEFDFFFF70010020C00000209C200000AE
:100C7000B0000020274B1B681A68130AD2B29BB23F
:100C8000002A01D001339BB26402381984B29C421D
:100C900014D3019B002B0BD180221900520006A80F
:100CA00000F079FD06A91C4800F0CEF8012301935D
:100CB00091A9200000F0C8F8002804D001230027E3
:100CC00000930933C0E70123070000930300BBE74B
:100CD0000423AEE680226102891909025200002035
:100CE000FFF74AFD0500002C0ED10B4B9E420BD1A5
:100CF00021000520FFF770FD21002D1A0620FFF7C7
:100D00006BFDEDB22D1AEDB26D4246AB1D710023A5
:100D100001258FE6C0000020FF01000070B5002013
:100D2000FFF7CEFD431E98410624134D40422B6829
:100D300004401A68C021C03A0020FFF71DFD6B680F
:100D40001B78181AC0B2834203D12B681B68002B92
:100D500002D1002000F06EF9084B19681A004029F2
:100D600001D0002C03D000231360FFF7E9FD80229F
:100D70001A6000F061F970BDC0000020B0000020D2
:100D800082B06A460B4B0C4900930C4B01930C4B01
:100D90001A600C4A1160C0461A68120F0F2A04D05C
:100DA0001A680020120F0A2A01D01868C0B202B0D7
:100DB0007047C046B6E900001600008074010020AC
:100DC0000800104004001040094B0A4A0A491A6002
:100DD0000A4A1160C0461A68120F0F2A04D01A6816
:100DE0000020120F0A2A01D01868C0B27047C0460E
:100DF00008001040B6E80000150000800400104014
:100E000082B06A460B4B0C4900930C4B01930C4B80
:100E10001A600C4A1160C0461A68120F0F2A04D0DB
:100E20001A680020120F0A2A01D01868C0B202B056
:100E30007047C046B6EA0000170000807401002029
:100E40000800104004001040F0B50024304BC7B03B
:100E5000029406000394984255D8A14253D08022B0
:100E600006A8520000F08EFC2A4B2B4D0493FF2362
:100E70002A492B4A04AF7B602F600A60C0462A686B
:100E80000191120F0F2A03D02A68120F0A2A01D0EB
:100E90002C681C400294029B002B36D100F0DDFA36
:100EA0000400FFF76DFF0390039B002B02D1FFF7B7
:100EB0008BFF0290029B002B16D11A4A1A4904920A
:100EC000049A0198360416430496134A2F60016071
:100ED000C0462968090F0F2903D01168090F0A2994
:100EE00001D01368DBB20293039B002B07D1FFF7FD
:100EF00087FF0390039B002B01D0039B02932000EC
:100F000000F0AFFA01E004230293029847B0F0BD6D
:100F1000FF010000B6D70000080010400400104098
:100F200004000080B6D800000500008070B5050000
:100F300000F093FA0400102D04D803210E4A136820
:100F40008B4307E0202D07D803210B4A13688B43FE
:100F500002390B4313600AE0302D05D80321064AFD
:100F600013688B430139F4E7002000F063F8200098
:100F700000F077FA70BDC04630001040024A034BC3
:100F800011680B401360704700002240FFFFFFBF55
:100F9000024B18684000C00F7047C0460000224056
:100FA0001B2800D901BE034B8000C31818681960C4
:100FB0007047C04640000020F8B504000E00032929
:100FC00000D901BE1B2C00D901BE032725003D40DE
:100FD000BD400635AF40AE4000F03FFAA408054BD7
:100FE000A400E4182368BB431E43266000F039FACE
:100FF000F8BDC04600E400E01F2318401E3B8340BC
:10100000014A13607047C04600E100E01F2318400A
:101010001E3B8340014A13607047C04680E100E0F8
:101020001F2318401E3B8340014A13607047C0468F
:1010300080E200E001BE7047034A044913689BB296
:101040000B4313607047C0460CED00E00400FA0546
:1010500070B5802504002D02064BAC4205D95868B6
:1010600000F0F2F9044BE418F6E79868604300F0EA
:10107000EBF970BDC80000200080FFFF37B500F01D
:10108000FDF8002842D000F0E8F91C21204B214A4D
:101090001B6812689B008A400B40920F1833D340A4
:1010A00080251D491D4A04000868ED0110401C4AB6
:1010B0005A435219D20B013A0243192B01D8194B4A
:1010C0000EE0194D19481818EB18A0251A3B0078A6
:1010D0001B786D031B182A43FF2B00D9FF239B05A8
:1010E0001A43134D0A602B6830200193FFF71EFF4F
:1010F0008021104AC905136814200B431360FFF7C1
:10110000A7FF019B20002B6000F0ABF937BDC04664
:10111000080F0340280003400800224000F800C0E8
:1011200040420F000000D43FAA2000004DF3FF0F03
:101130003000104000002240F7B50500183D0400C3
:10114000182D46D80126244B3700EB409F4340D151
:1011500000F083F90190FFF71BFF0097002802D0F1
:10116000FFF70CFF009607271C4E1D4A33681D49E8
:10117000BB4333601C4BE3181B78DBB213601B4A84
:101180001368BB4313601A4B0A68E31818787F236F
:101190009A43034013430B60322000F055F9182C9A
:1011A0000ED033681C3CA408BB433C401C43346055
:1011B000322000F049F93368AD08BB431D43356068
:1011C000009B012B01D1FFF759FF019800F049F96D
:1011D00000E001BEF7BDC04611111101080F034028
:1011E0000C0F0340180F03404DF3FF0F100F034087
:1011F00034F3FF0F10B5034B1B7B584300F024F969
:1012000010BDC046C8000020144B1A78144BD1B250
:1012100001601B781B020B431A000360114B1B7803
:101220001B041343104A0360127812061343036031
:101230000E4B1A780E4BD1B241601B781B020B4348
:101240001A0043600B4B1B781B0413430A4A43608C
:1012500012781206134343607047C04678F2FF0FBE
:1012600079F2FF0F7AF2FF0F7BF2FF0F7CF2FF0F94
:101270007DF2FF0F7EF2FF0F7FF2FF0F014B186828
:10128000C00F704700002240014A024B1A607047AD
:101290006588EDAC3800034070B5154D04002B682F
:1012A000144E9B0F9B07984215D0032233687C2075
:1012B000934333602B689B0F00D09030FFF79AFF69
:1012C00000F0CBF82B68A40F9B009B08A4071C43DD
:1012D0002C6000F0C6F803223368934319002B6892
:1012E0009A0F5342534101330B43336070BDC046E4
:1012F0000C0222401402224010B5040000F0ADF8A8
:101300000549064A0B681440054A134023430B6005
:101310000B6800F0A6F810BD10022240040404007F
:10132000FBFBFBFF042270B5224C2368134213D051
:1013300021490B6813420CD0204B5D6908681540A9
:10134000A84308605969914359619B68002B00D0FC
:1013500098470420FFF7D0FF80232268DB001A4261
:1013600015D015490A681A420DD0144A5569086803
:101370002B40984308605169114B0B405361D3686F
:10138000002B00D098478020C000FFF7B5FF8023D6
:101390002268DB021A420CD0074A12681A4204D0B3
:1013A000064B1B69002B00D098478020C002FFF736
:1013B000A3FF70BD10022240DC0000208C01002041
:1013C000FFFBFFFF034A044B116840020B40184328
:1013D0001060704708030440FFF1FFFF0823044931
:1013E000C0000A689A43D2B2034013430B607047AF
:1013F00000030440024B18680007C00F7047C04646
:1014000004030440034A044B116880010B40184355
:1014100010607047080004403FFEFFFF04230449AA
:1014200080000A689A43D2B2034013430B607047AE
:1014300000000440024B18684007C00F7047C046C8
:1014400004000440000000000230800803D0013096
:101450000238FCD1C046C0467047EFF3108072B628
:10146000704780F310887047084B094A1968136861
:101470000020994208D013680133412B00D10300AA
:101480000449C85C1360C0B27047C046C801002060
:10149000C4010020CD010020044B1868044B1A68D9
:1014A0001B68904200D24130C01A7047C80100202A
:1014B000C40100201F2204490B681340082BFBD0F5
:1014C000024B18607047C046080225404002254084
:1014D00070B504004518AC4204D02078FFF7EAFF4D
:1014E0000134F8E770BD0000134B70B51B68002B8A
:1014F00000D09847114B1B685B071CD520241F2088
:101500000F490B680133412B00D100230D4A1568A8
:101510000D4AAB4203D113680C4B1C7004E01268F7
:101520000B4DD2B2EA540B600A4B1B680342E8D160
:101530000422094B1A6070BD68010020CC0F2540C1
:10154000C8010020C401002040032540CC01002038
:10155000CD01002008032540C00F254010B5FFF73E
:1015600047F810BD10B5FFF751F810BDF8B50400ED
:101570000F0016000120002C28D0002926D00A25B3
:101580005D43FFF789FF002810D0FFF785FF0500B6
:10159000AE20FFF72FFEFFF77FFF8542F5D1390020
:1015A000AF4200D929003180651807E00120013DD4
:1015B000FFF74EFD002DE4D1102007E0AC4204D02F
:1015C000FFF752FF20700134F8E70020F8BD70B536
:1015D00001230C001500002805D0002903D0FFF7D7
:1015E00077FF00232C80180070BD000002B4714604
:1015F00049084900095C49008E4402BC7047C04656
:1016000003B47146490840004900095E49008E4410
:1016100003BC7047002243088B4274D303098B42FA
:101620005FD3030A8B4244D3030B8B4228D3030CB2
:101630008B420DD3FF22090212BA030C8B4202D354
:101640001212090265D0030B8B4219D300E0090A7C
:10165000C30B8B4201D3CB03C01A5241830B8B4285
:1016600001D38B03C01A5241430B8B4201D34B036E
:10167000C01A5241030B8B4201D30B03C01A5241D3
:10168000C30A8B4201D3CB02C01A5241830A8B4258
:1016900001D38B02C01A5241430A8B4201D34B0241
:1016A000C01A5241030A8B4201D30B02C01A5241A5
:1016B000CDD2C3098B4201D3CB01C01A5241830959
:1016C0008B4201D38B01C01A524143098B4201D393
:1016D0004B01C01A524103098B4201D30B01C01ABE
:1016E0005241C3088B4201D3CB00C01A5241830838
:1016F0008B4201D38B00C01A524143088B4201D365
:101700004B00C01A5241411A00D2014652411046C4
:101710007047FFE701B5002000F006F802BDC046A3
:101720000029F7D076E770477047C046014B18682C
:101730007047C046400100200E4B70B500251E00CA
:101740000D4CE41AA410A54204D0AB00F3589847FE
:101750000135F8E700F0D0FC084B00251E00084CCE
:10176000E41AA410A54204D0AB00F3589847013501
:10177000F8E770BD042100000421000004210000EE
:101780000C210000002310B59A4203D0CC5CC45455
:101790000133F9E710BD03008218934202D019709B
:1017A0000133FAE77047000030B59BB00091049117
:1017B00008496D4602910591012182244942E9813F
:1017C000A4006946AC8100F075F80023009A1370FC
:1017D0001BB030BDFFFFFF7F10B513000A000100F2
:1017E00002480068FFF7E0FF10BDC046400100203E
:1017F000F0B58E6885B007000C00039201939E42FD
:1018000043D890238A89DB001A423ED00325096918
:10181000236801985B1A029363695D43EB0F5D19BE
:10182000029B6D1001331B18AB4200D91D005305FC
:1018300010D52900380000F037FB061E14D0029A9C
:101840002169FFF79FFFA289194B134080221343A0
:10185000A38112E02A00380000F086FB061E0CD19E
:101860002169380000F0D4FA0C23402201203B60AB
:10187000A38940421343A38117E0029B2661F61817
:1018800026606561019EED1AA560019BB34200D2FE
:101890001E0032000399206800F0A5FA0020A3681A
:1018A0009B1BA36023689E19266005B0F0BDC0464F
:1018B0007FFBFFFFF0B59FB0029005938B890F006F
:1018C00016001B0610D50B69002B0DD1402100F02E
:1018D000EBFA38603861002804D10C23029A0138F1
:1018E0001360D8E040237B61002306AD6B61203399
:1018F0006B761033AB7634002378002B03D1A31B17
:10190000049312D003E0252BF9D00134F4E7A31B94
:10191000320039000298FFF76BFF431C00D1B4E09E
:101920006A69049B944663446B612378002B00D161
:10193000ABE00122002352426A6002A954325218DD
:1019400001342B60EB60AB601370AB65534E2178B4
:101950000522300000F03CFA002807D00123801B4C
:1019600083402A68013413432B60EFE72B68DA06C3
:1019700004D55322202102A8121811701A0704D589
:1019800053222B2102A81218117022782A2A03D080
:10199000099B00200A210EE0059A111D126805918D
:1019A000002A01DB099204E05242EA60022213435A
:1019B0002B6001340BE02278303A092A04D84B43DB
:1019C00001349B180120F6E7002800D00993237802
:1019D0002E2B1ED163782A2B0AD1059B02341A1DA7
:1019E0001B680592002B01DA01235B42079310E08C
:1019F00000230A201A0001346B602178303909294C
:101A000004D84243013452180123F6E7002B00D0DA
:101A10000792234E21780322300000F0D9F90028E4
:101A200006D04023801B83402A68013413432B6077
:101A3000217806221B48661C297600F0C9F9002887
:101A400012D0194B002B06D10722059B0733934375
:101A50000833059314E005AB00933A00134B2900BB
:101A6000029800E000BF07E005AB00933A000F4B7F
:101A70002900029800F08AF80390039B013304D0F8
:101A80006B69039A9B186B6135E7BB890B985B0602
:101A900001D5012040421FB0F0BDC046C320000068
:101AA000C9200000CD20000000000000F117000058
:101AB000F7B5170001938A680B6900900C009342F8
:101AC00000DA130022003B6043321278002A01D072
:101AD00001333B6023689B0602D53B6802333B60C1
:101AE000062523681D401ED0230043331B785A1E51
:101AF0009341226892061CD53020E11843310870CA
:101B000021005A1C45310978A21843320233117062
:101B10000FE022000123193201990098089EB04776
:101B2000431C0ED00135E3683A689B1A9D42F0DBF6
:101B3000DAE72200019943320098089DA847431C28
:101B400002D10120404220E006232068E1683A6883
:101B500003400025042B03D18D1AEB43DB171D40F6
:101B6000A3682269934201DD9B1AED180027BD424C
:101B70000AD0220001231A3201990098089EB0472A
:101B8000431CDED00137F2E70020FEBDF0B58BB07C
:101B900006920A0043320793059004920A7E0C00D5
:101BA000109B6E2A00D1ABE011D8632A22D009D84D
:101BB000002A00D1B5E0582A00D0C5E045310A70AE
:101BC000814A4FE0642A1DD0692A1BD0BCE0732AE9
:101BD00000D1AAE009D86F2A29D0702A00D0B3E03A
:101BE000202209680A43226037E0752A1FD0782A2C
:101BF00033D0A9E00E001A684236111D196013682F
:101C00003370A4E021681A68080606D4490604D592
:101C1000111D19600023D55E02E0111D19601568C1
:101C2000002D3BDA2D23049A6D42137036E02168B3
:101C30001A68080606D4490604D51568111D1960EE
:101C4000ADB202E0111D196015685F4B227E03934F
:101C500008276F2A1DD00A271BE022007821453271
:101C600011705A4A19680392081D226818600D689D
:101C7000100602D4500600D5ADB2D30702D52023FA
:101C80001A4322601027002D03D1202322689A4393
:101C900022602300002243331A7002E00A274A4BD5
:101CA00003936368A360002B09DB0422216891433E
:101CB0002160002D05D1049E002B11D07BE0002D6A
:101CC00079D0049E28003900FFF72AFD039B013ECE
:101CD0005B5C280033703900FFF79CFC051EF1D1D6
:101CE000082F09D12368DB0706D563682269934270
:101CF00002DC3023013E3370049B9B1B23612BE0ED
:101D000009681A68080607D4490605D5111D196027
:101D10001368A28A1A8004E0111D196013686269B1
:101D20001A600023049E236116E01A68111D1960D1
:101D3000166800216268300000F04AF8002801D0DF
:101D4000801B6060636803E0260042363270012326
:101D500023610023049A1370079B09AA00932100B2
:101D6000069B0598FFF7A4FE431C02D101204042C8
:101D700027E02369320006990598079DA847431C70
:101D8000F4D0236800259B070FD4099BE068984294
:101D900017DA180015E02200012319320699059878
:101DA000079EB047431CE1D00135E368099A9B1AAE
:101DB0009D42F0DBE9E72600039B42361B78337037
:101DC0008EE70BB0F0BDC046D4200000E520000037
:101DD000C9B28218904204D003788B4202D00130FD
:101DE000F8E70020704710B5884202D98B18984256
:101DF00001D3002305E09B1A013A08D3995C815472
:101E0000FAE7934203D0CC5CC4540133F9E710BD28
:101E100070B50500002944D00C1F2368002B00DAA0
:101E2000E418280000F0D8F81E4A13681100002BAF
:101E300002D16360146031E0A3420DD92268A0187A
:101E4000834203D118685B688218226063600C606B
:101E500024E0A24203D813005A68002AF9D11E6870
:101E60009819A0420BD12168711858181960824244
:101E700014D110685268411819605A600EE0A042EF
:101E800002D90C232B6009E021686018824203D13B
:101E9000106852684118216062605C60280000F0A0
:101EA0009CF870BDA8010020032370B5CD1C9D4394
:101EB000083506000C2D01D20C2501E0002D01DBB8
:101EC000A94202D90C23336048E0300000F084F8C6
:101ED000234B1C681A002100002913D00B685B1BE0
:101EE0000DD40B2B02D90B60CC181EE08C4202D112
:101EF000636813601AE04B6863600C0016E00C0026
:101F00004968E9E7174C2368002B03D1300000F043
:101F100051F820602900300000F04CF8431C18D024
:101F20000323C41C9C43A0420DD12560300000F067
:101F300054F8200007220B30231D9043C31A0ED003
:101F40005A42E2500BE0211A300000F033F8431CF3
:101F5000EBD10C233000336000F03FF8002070BD5F
:101F6000A8010020A4010020F8B506000C0015000F
:101F7000002904D11100FFF797FF040018E0002AA0
:101F800003D1FFF745FF2C0012E000F027F885424F
:101F90000ED929003000FFF787FF071E07D0210068
:101FA0002A00FFF7EFFB21003000FFF731FF3C0074
:101FB0002000F8BD002370B5064C05000800236022
:101FC000FEF7A4FA431C03D12368002B00D02B603A
:101FD00070BDC04610020020704770470B1F1A6882
:101FE000101F002A04DA891804390B68D018043845
:101FF00070470000002200002A00000000000000DE
:10200000F7FF7018B2C0300154144A1378184B10FF
:102010003C57F905F00038200020D80E2B053B6115
:102020000023E023FDC2F7FF7018B2C03001541541
:102030004A1D78184B1AF917F0000020D80C2D090A
:10204000626F6F746C6F6164657220737461727417
:102050000D0A0054686520626F6172642069732004
:102060006E6F74206163746976617465642C20708E
:102070006C6561736520616374697661746520695C
:102080007420776974682074686520616374697668
:10209000652E63796163640D0A000000B5116A253D
:1020A000003C0101D91F5DC38D2AEEDBC9B9AA9B93
:1020B0008E82766B60564D443B332C241D17100ADC
:1020C000044300232D302B2000686C4C00656667AC
:1020D000454647003031323334353637383941429E
:1020E0004344454600303132333435363738396170
:1020F0006263646566000000F8B5C046F8BC08BCC1
:102100009E4670472901000089050000F8B5C046C9
:10211000F8BC08BC9E467047010100003021000059
:10212000B800002090000000D00000000000000077
:102130000000000018020020F41F0000F81F00003B
:10214000010000000000E02EC05D0000180000004B
:1021500000366E01040404000000000000000000CE
:10216000000000000000000000000000000000006F
:102170000000000000000000C1200000000000007E
:10218000000000000000000000000000000000004F
:10219000000000000000000000000000000000003F
:1021A000000000000000000000000000000000002F
:1021B0000000000000000000E0000020000000001F
:1021C000000000000000000000000000000000000F
:1021D00000000000000000000000000000000000FF
:1021E00000000000000000000000000000000000EF
:1021F00000000000000000000000000000000000DF
:102200000040002011220000912D0000912D0000BF
:1022100080B5044B00AF83F3088800F05FFE00F048
:10222000D7FDC0460040002070B572B60024414B77
:10223000414A1C60414BC7211A60414B414A1C6016
:10224000414B49001C60414B20251C600523136055
:102250003F4A11603F4A136012223F4B1A6000F060
:102260002BFE302001F0ECF8E8223C4B52011A60C2
:102270003B493C4B3C481960C021890001603B4808
:1022800018603B4801603B493B4819603B490A6084
:102290003B491960F821490101603A4818603A4801
:1022A00004603A4818603A4802603A4A0D201A60C1
:1022B000394A1160394A3A491A604522394B1D6042
:1022C000394B1A60394B033A1A60394B013A1A609C
:1022D000384B06321A60384B013A1A60374B033AD2
:1022E0001A60374B01321A60364B043A1A6001F01B
:1022F00017F80D2001F020F88020334BC0051C603A
:1023000000F0F4FD0322314B01201A608022304B93
:1023100012061A6008222F4B1A602F4B1D6000F026
:10232000EDFC62B601F030F92C49042001F054F9BB
:1023300070BDC04600030240FF0F000000040240D1
:102340000803044000040440180304400003044050
:1023500008040440180404403000104014030140F5
:1023600045FF0080000001400803014042FF00805B
:102370000403014041FF0080100301400C030140B1
:1023800043FF008044FF00800003014040FF0080C5
:102390001803014046FF00801C03014047FF0080F6
:1023A000E5310000280003404801014030010140B0
:1023B0002C010140100101400C01014008010140C5
:1023C00004010140000101400C0222403000304075
:1023D00000003A4000033A40000E3F40ED2C000060
:1023E00010B5064C2378002B07D1054B002B02D0EB
:1023F000044800E000BF0123237010BD3801002015
:1024000000000000044F0000044B10B5002B03D067
:102410000349044800E000BF10BDC04600000000B2
:102420003C010020044F000010B50400806802F059
:102430008BFC06202056002803DB0121C0B200F0EF
:10244000D5FA200010BD10B5040006202056002843
:1024500007DB0621C0B200F0C9FA0021A07900F024
:10246000D3FA0123637010BD70B5050080680E00BB
:1024700002F06AFC2B7BEC7BE41A631E9C41033464
:102480007443A4B22000AC8002F054FCA860002881
:1024900005D02200002102F061FC6E8070BDA88092
:1024A0006880FBE70322F8B58B110D118E101640E2
:1024B000134015400A40467382730026FF228A4269
:1024C00076418268C47B077BC37305730670002A5C
:1024D0000AD0E21B5B1B51424A4159424B419A428E
:1024E00002D04188FFF7C0FFF8BD8368010010B536
:1024F000002B07D072B6037882888968807900F053
:10250000B7F862B610BD70B5437804000D00002B1B
:1025100007D006202056002803DB0121C0B200F0BE
:1025200065FA6378A571002B07D00621280000F01A
:102530005DFA0021280000F067FA70BD70B5040054
:1025400000200E00150019006070E071A06020618D
:102550002000FFF7A7FF31002000FFF785FF2900CB
:102560002000FFF7D0FF200070BD4388F7B58B42F5
:1025700019D9C379150C140A002B15D1E4B2EDB2A8
:102580000194D6B2B446047BC67B8768B44217D1A7
:10259000032359437F18037B019AFD54437BFA546C
:1025A0006246837BFA54F7BDFF26344035405C43D6
:1025B00016405D435E43240A2D0A0194360AE1E782
:1025C00089007F18120E002B02D1D3B2BB55E2E76F
:1025D00053431B0AFAE710B500218288806802F095
:1025E000BDFB10BD10B506211A2000F0FFF9002137
:1025F0001A2000F009FA044C2000FFF724FF200005
:10260000FFF7E9FF10BDC0465401002010B50C4C87
:1026100000210C4A2000FFF7A8FF2000FFF765FF0C
:10262000142000F035FA002220001100FFF79DFF72
:102630002000FFF75AFFFA20C00000F029FA10BD71
:10264000540100205050500010B5064C5223072270
:1026500001212000FFF772FF2000034A034901F027
:1026600008FA10BD54010020B80000202924000001
:102670000723F0B5012403409C40E5B22E001B4B1C
:10268000C0080002C018036885B0DBB21E43009684
:10269000AB430E788A184D1C1549A34301930B6870
:1026A000002402933C230B60124B1C608034039186
:1026B0001F683B2FFCD9009F07601627264200D1D8
:1026C000133719688F42FCD3019964080160EFD178
:1026D000954203D22E7880340135E9E71A683B2A07
:1026E000FCD9029B039A136005B0F0BD00000440C2
:1026F00014E000E018E000E0C308194A1B02F0B53E
:102700009D18184A03269C18174A9B180722104048
:10271000063A8240082903D0092902D1310000E09D
:1027200002217043072686402F68B7430E0086407B
:10273000380030432860D043022903D119680A4386
:102740001A6008E01D6805401D60002903D1236858
:102750001A43226002E0236818402060F0BDC046A2
:1027600008000440180004400000044007B5684613
:1027700000F03AFF0098019B010B000589B2184355
:1027800003B000BDF0B58FB0FFF7F0FF0E040025D9
:1027900034002B0000196941320C801A99410090D5
:1027A0000191019B754E1C042200009BB4461B0C3A
:1027B0001A431000724A734F821813093340724E45
:1027C000120132401343714A714E9B189A083240ED
:1027D000704E9B00334013436F4A704E9B185A084B
:1027E0005B0032403B4013436D4A6E4C9B186E4A6F
:1027F0001E0A1B02234016401E432B006546069509
:10280000614D66490795624D0891AC46614D099747
:1028100066495F183F780AA95F540133102BF7D13E
:102820000B990A9B09BA03910C991BBA09BA049136
:102830000D9909BA0591002102919E4200D099E0BC
:10284000F02600995A4B0F0136033E405949034088
:1028500033435B181F021B0A1A403C40564B14437B
:10286000E418E24363469200A40815401C40534B11
:102870002C43E218079B14011C40D34306991B0903
:102880000B404F4923435B183E495F008C46099932
:102890005B080F4008993E4E0B401F43039B3A4D87
:1028A000364A3E4C9F4265D1009B00991F04F0239D
:1028B0001B051F40434B03401F43F0230B4042497D
:1028C0003B435B181F02DB4336491B0A0F40364966
:1028D0000B401F433D4B2F49FF18FB433F091B0192
:1028E0002B4017401F433A4BFF18FF43BB08BF0064
:1028F0000F40334037493B435B1861465F000F4050
:102900005B08049923403B438B4233D10300324997
:102910000B401900009B1802F0231B0118400143D3
:102920004F00C943634649081F4021402B4B0F43CA
:10293000FF18FB433F091B011D403A40284B2A4327
:10294000D218184913021940D343174A1B0A1340DF
:10295000244A0B439B18DB430E4A98089B00134004
:1029600030401843204BC018059BC01A43425841C1
:1029700043B202936B46187A0FB0F0BD0F0F0F0FE2
:1029800059C9947FAAAAAAAAF0F0F0F04E384E0ACC
:1029900033333333CCCCCCCCDC842357555555550D
:1029A000247BDCA800FF00FFFF00FF00F0F7FF0F13
:1029B000FFFFF0FF41BD4B3946F6AC3FDAE94D4130
:1029C0004299797E0FFFFFF02DB1F6B2B2C3ED1B35
:1029D000731F94F5DBAEE973FFF0FFFF38E47C234F
:1029E00039DEC7D99A0FEC4100C1C62870B5040082
:1029F0000D00FFF7C7FE002800D1FEE729002000E8
:102A0000FFF77AFE70BD000070B504000D0032289B
:102A100002D0342809D014E0124B1A78002A10D0C2
:102A200000221A7000F078F907E00F4B1A78002A9C
:102A300007D000221A7000F089F906212000FFF764
:102A4000D5FFE308094A1B029B1807221440063AE7
:102A5000A2401968002D01D00A4301E091430A0009
:102A60001A6070BD69010020680100200000044068
:102A70000723064A0340C0080002801802680120AC
:102A800098401040D840C0B27047C046040004408F
:102A900010B500F05DFC10BD10B500F017F810BDCA
:102AA00070B5022000F02EFB03000021054A064C01
:102AB0001568581B256866684019714113602060CD
:102AC000616070BD7801002070010020F8B500F051
:102AD000D0F90500022000F015FB030000210D4A8B
:102AE0000D4C16681360981B266867688019794139
:102AF00020606160280000F0C0F920686168FA2257
:102B00000023920001F048F84B04C00B1843C90B96
:102B1000F8BDC046780100207001002010B5802467
:102B20006402200000F07AFA8020000300F0D8FB55
:102B30001F2000F0D1FA0749022000F015FB022007
:102B400000F022FB0121022000F012FA200000F028
:102B500049FA10BDA12A000070B50500002000F060
:102B60002DFB012000F02AFB0220FA26FF3000F0A6
:102B700055FA264800F0B4FBF600254BB54221D9A2
:102B8000012431001C70280001F000F8214B0020C6
:102B90001960214900F078FA3100280000F070FF38
:102BA0000100200000F070FA0021080000F0E0F9B8
:102BB0002100200000F0DCF9200000F0E5FA0220FE
:102BC000FF3020E0FA20002480001C70684301F0F0
:102BD000D9FE0022114B01F025F801F005F8411E45
:102BE000200000F051FA2100012000F04DFA0121EF
:102BF000200000F0BDF92100012000F0B9F920000B
:102C000000F0C2FA012000F0EDF970BD08080000E4
:102C10008001002084010020FFFF000080843E40EE
:102C2000022010B5FF3000F0F9F9134800F058FB0E
:102C3000002000F0C3FA0124012000F0BFFA802038
:102C40000E4AC00513682343136000F04FF90820B3
:102C500000F000FA2100002000F0AAF92100200075
:102C600000F0A6F90649002000F07EFA0549200090
:102C700000F07AFA10BDC0460808000000002240AB
:102C8000A12C0000BD2C0000022010B5FF3000F088
:102C9000C5F9024800F024FB10BDC046080800003A
:102CA00010B5002000F08AFAFFF7EEFF024B1B6818
:102CB000002B00D0984710BD7C010020094B10B5B7
:102CC0001868002802D0FFF747FF09E0012000F054
:102CD00075FAFFF7D9FF044B1B68002B00D098470B
:102CE00010BDC046840100207C010020024A136808
:102CF000013313607047C0468C010020054A1368F9
:102D0000002803D0802109060B4301E05B005B082B
:102D10001360704780033A4010B500213220FFF75E
:102D200065FE074A074913680B40136000F0A1F8DD
:102D30002021054A13688B43136000F09EF810BDF4
:102D400000060240FFF7FFFF0000204010B5002101
:102D50003420FFF74BFE074A074913680B40136006
:102D600000F087F84021054A13688B43136000F098
:102D700084F810BD00060240FFFFF7FF000020406E
:102D800010B500F003FDFFF72DFCFFF73FFCFCE75B
:102D900010B501F0A5FF03680C2B00D1FEE7FEE79C
:102DA000030010B580240849084A08686401C31864
:102DB0009A1AA24201DC0B6010BD01F091FF0C23B6
:102DC000036001204042F7E7BC0000208802002099
:102DD000F8B500240E490F4B002904D101F086FFFD
:102DE000FFF7CEFFFEE700221F6858689E6885182F
:102DF000B24206D10022D868824206D1103301398E
:102E0000EAE7BD5885500432F1E7AC500432F3E7ED
:102E100001000000944F0000002370B50B480C4CDB
:102E20000C4D21009A00032B00D8A9580133815082
:102E30002C2BF6D1FFF7F8F9074B1A68002A00D1BE
:102E40001A608022054B92051A6070BD00000020B8
:102E5000912D000000220000B000002008ED00E0ED
:102E60000230800803D001300238FCD1C046C04691
:102E70007047EFF3108072B6704780F31088704788
:102E8000012202200A4B1968914319601968814395
:102E90001960084B2E301968814308001021014346
:102EA00007201960196881430A431A607047C046B9
:102EB00000002240000F224010B5FFF7E1FF802301
:102EC000024A1B0611680B43136010BD000022402C
:102ED000014B1868C00F704700002240014B024AA6
:102EE0001A607047380003406588EDAC70B5154E28
:102EF00004003368144D9B0F9B07984215D00322A2
:102F00002B687C2093432B6033689B0F00D090305C
:102F100000F0F2FAFFF7ADFF3368A40F9B009B08A7
:102F2000A4071C433460FFF7A8FF03222B689343D8
:102F30001A0033689B0F59424B41013313432B60F6
:102F400070BDC0460C0222401402224010B504009D
:102F5000022802D9002000F0F9F9044BE4001868B7
:102F60000134E0400123184010BDC0461002224049
:102F700070B505000C00022802D9002000F0E6F927
:102F8000012C02D9002000F0E1F92800FFF7DEFF54
:102F900000280AD101210800ED00A8400C40AC40F7
:102FA000024A136883431C43146070BD0C02224024
:102FB00070B504000D00012802D9002000F0C6F908
:102FC0002000FFF7C3FF002809D10122E4000234EA
:102FD000A240A540024B196891430D431D6070BD8E
:102FE0000C0222400C4B1A6802431A60C20703D538
:102FF000022219681142FCD0C20504D58022920039
:1030000019681142FCD0C20304D5802292021968CB
:103010001142FCD07047C046100222400C4B1A6887
:1030200082431A60C20703D5022219681142FCD1FB
:10303000C20504D58022920019681142FCD1C20356
:1030400004D58022920219681142FCD17047C04613
:10305000100222400949020008680B6809685B0AEF
:1030600040080343490C0B43DB0705D4044B0549D7
:1030700018680840104318607047C046100222408C
:103080000C022240F7F7FFFF70B504000E00012884
:1030900002D9002000F05AF90C4DC9202B689B0F73
:1030A00000D06C3800F028FA094A2401A240A6405A
:1030B000084B432019689143314319602B689B0FDB
:1030C00000D0243800F018FA70BDC0460C0222402F
:1030D000FFFF000008022240074B1B689B0309D436
:1030E000064A0749136800060B40F82149050840C5
:1030F000184310607047C046100222400C02224064
:10310000FFFFFFE010B5012807D0022809D00028F2
:103110000AD1084B186880B210BD064B1868000C25
:10312000FAE7054B1868F7E7002000F00FF90020D8
:10313000F2E7C046000222400402224010B504001B
:10314000FFF797FE054A064913680B4005490C40F6
:10315000234313601368FFF790FE10BD1002224056
:10316000FBFBFBFF0404040010B5022804D8054A49
:1031700083009858995010BD002000F0E7F8002017
:10318000F9E7C0469001002010B502280BD8084985
:10319000084B80000A68C3589A430A60064A1168BF
:1031A0000B43136010BD002000F0D0F8FAE7C046D2
:1031B0009C010020084F0000C000002010B502282C
:1031C00007D8064A06498000136841588B431360AC
:1031D00010BD002000F0BAF8FAE7C046C000002099
:1031E000084F0000042370B5374C22681A4221D0E2
:1031F00036490A681A421AD0354A156808681D40CF
:10320000A84308601168334D99432B681160002B67
:103210000DD001212120FFF7E9FB2F4B1B78002B5C
:1032200003D002211920FFF7E1FB2B689847042007
:10323000FFF784FF80252368ED002B4223D0234A2B
:1032400013682B421BD0224B186811682840814319
:1032500011601A6821491F4D0A401A606B68002BE3
:103260000DD001212120FFF7C1FB1B4B1B78002B48
:1032700003D002211920FFF7B9FB6B689847802023
:10328000C000FFF75BFF80232268DB021A4219D0DF
:103290000E4A12681A4211D00E4CA368002B0DD0B2
:1032A00001212120FFF7A2FB0B4B1B78002B03D041
:1032B00002211920FFF79AFBA36898478020C002DB
:1032C000FFF73CFF70BDC04610022240C000002046
:1032D0009C0100209001002088010020FFFBFFFFDF
:1032E000044B054A196810400843186019681142D8
:1032F000FCD170471002224008080800024A034926
:1033000013680B401360704700002240FFFFFFBFAF
:10331000024B18684000C00F7047C04600002240B2
:103320001B2800D901BE034B8000C3181868196020
:103330007047C046400000201F2318401E3B8340BA
:10334000014A13607047C04600E100E001BE7047CB
:1033500070B5802504002D02AC4205D8064B1868D4
:103360006043FFF77DFD70BD044B1868FFF778FDE3
:10337000034BE418F0E7C046CC000020C400002056
:103380000080FFFF37B5FFF7A3FD002832D0FFF71D
:1033900070FD1C21204B80251A68204B92001B6871
:1033A0000A408B4018329B0FDA401D4904000B681D
:1033B0001C48ED0118401C4B53435B19DB0B013BD0
:1033C0000343192A17D8194A1343194D0B602B6868
:1033D0003020019300F064FA8023164ADB0511685F
:1033E00014200B431360FFF7B3FF019B20002B60F9
:1033F000FFF743FD37BD1048101805780F488218B5
:103400001A3A12785219FF2A00D9FF229205134363
:10341000A0225203D8E7C046080F0340280003400B
:103420000800224000F800C040420F000000D43FD6
:1034300030001040000022404DF3FF0F144F0000F9
:10344000F7B50600183E0400182E03D8234BF340AE
:10345000DB0701D401BEF7BDFFF70BFD0190FFF7BD
:1034600057FF0090002803D0FFF748FF0123009387
:1034700007277F201A4D1B4A2B681B49BB432B6033
:103480001A4BE3181B78DBB21360194A1368BB436D
:103490001360184A0B68A218127883430240134342
:1034A0000B604D38FFF7DCFC182C0ED028681C3C54
:1034B000A408B8433C4004432C603220FFF7D0FC02
:1034C0002B68B608BB431E432E60009B012B01D125
:1034D000FFF758FF0198FFF7D0FCBCE7111111016D
:1034E000080F03400C0F0340180F03404DF3FF0F6C
:1034F000100F034034F3FF0F10B5034B1B785843F4
:10350000FFF7AEFC10BDC046D000002010B500246F
:103510000C4B0D4A1C605C609C60DC601C610B4BBA
:103520001A6004230A4A11680B43FA211360094BFD
:103530008900186800F0A4FA074B1860074B1C605C
:1035400010BDC046A0010020B53500003C000020A1
:1035500010E000E0C800002014E000E018E000E007
:103560000223024A11680B431360704710E000E029
:1035700010B5FFF7F5FF0123024A11680B431360F2
:1035800010BDC04610E000E010B5054C2368002BCC
:1035900003D1FFF7BBFF01232360FFF7E9FF10BD55
:1035A000B4010020024B1868C003C00F7047C0462A
:1035B00010E000E010B5FFF7F5FF012809D1002465
:1035C000044BA200D358002B00D098470134052C9F
:1035D000F6D110BDA0010020024A83009858D150B6
:1035E0007047C046A0010020134B1A78134BD2B28B
:1035F00002601B781B021A43114B02601B781B04EC
:103600001343104A036012781206134303600E4BF3
:103610001A780E4BD2B242601B781B021A430C4B35
:1036200042601B781B0413430A4A43601278120657
:10363000134343607047C04678F2FF0F79F2FF0FE3
:103640007AF2FF0F7BF2FF0F7CF2FF0F7DF2FF0F8C
:103650007EF2FF0F7FF2FF0F37B5012500240195A1
:103660000095002306222321094800F0B5F82A001E
:103670002300272107480194009400F0ADF82A00A8
:103680002300262104480194009400F0A5F837BDDA
:103690001C020020C4010020D001002037B5002406
:1036A000114D06212878FFF7A1F9142000F0F4F855
:1036B0002300280006222F210194009400F08CF8AA
:1036C000282000F0E9F80123062228002F21019389
:1036D0000094230000F080F8142000F0DDF8287832
:1036E0002100FFF783F937BDB801002010B503486A
:1036F00000F07FF80128FAD010BDC046C4010020B8
:1037000070B572B60A4C0021200000F06EF8094D29
:10371000C021280000F07CF80021280000F078F893
:103720000121200000F061F8FFF7E0FF62B670BDF4
:103730001C020020F4010020F7B515000C000190D8
:1037400000F080F80E4E0021300000F04EF86B467D
:103750000C4F9988380000F05BF86519AC4209D12C
:103760000121300000F041F8019B842B01D0FFF7CC
:10377000BDFFF7BD2178380000F04AF80134EDE7CD
:103780001C020020F40100207047704710B500F0C3
:1037900035F8FFF745FAFFF7C1F9FFF77DF90D4B53
:1037A000062118601A20FFF721F901211A20FFF7DE
:1037B0002BF901211B20FFF719F9FFF74DFF0A2014
:1037C000FFF766F9FFF76AFF0A20FFF761F900F0DB
:1037D0005BF810BD8C01002037B506AC2478079D3E
:1037E0000094019500F02CF937BD10B500F01EF9DA
:1037F00010BD10B500F033F910BD000010B500F099
:1038000085F80022014B1A6010BDC046000301403C
:1038100010B50C0000F002F90028FBD12000F624BE
:1038200000F0EEF8FF3400F0E3F8002803D000F0D9
:10383000D9F880B203E0013C002CF4D1004810BD5F
:10384000FFFF000010B5074B1A78002A02D01B7842
:10385000062B03D1FFF754FFFFF796FFFFF746FF54
:1038600010BDC0466402002013B501AC2070FFF704
:103870008CFF012221008420FFF75EFF0022014B14
:103880001A7013BD6402002010B50420FFF7ECFF8E
:103890000220FFF7FDF810BD10B5FFF759FD10BD70
:1038A00070B50400FFF7E5FA0500102C08D80321D5
:1038B0000F4A13688B4313602800FFF7DEFA70BDD0
:1038C000202C08D803220A490B6893431A000123CD
:1038D00013430B60F0E7302C06D8032204490B6831
:1038E00093431A000223F3E70020FFF72FFDE3E7DD
:1038F000300010408023044A10B511681B060B43AA
:10390000136000F011F810BD0000244010B5054C04
:103910002378002B03D100F021F801232370FFF757
:10392000E9FF10BD68020020024B1A88024B1A60A2
:103930007047C04666020020880F2440054A0649A9
:10394000136880060B40C021090508401843106029
:103950007047C04620002440FFFFFFF307210020EE
:10396000104B114A10B51A60104B114A1A60114BD6
:10397000114A1360114A1160114A1360114B18600B
:10398000114B1860114B1860114B1860114B1860E7
:10399000114B1860114B18601A68114B1A80FFF711
:1039A000CDFF10BD0000244007000001200024408E
:1039B000010000800701008000032440040324402C
:1039C0000002244004022440880E2440C80E2440F3
:1039D000480F2440080F2440C80F2440880F24407B
:1039E00066020020014B18687047C046400324401F
:1039F000024B18681F2318407047C0460803244034
:103A00001F2204490B681340082BFBD0024B18609F
:103A10007047C0460802244040022440024B186808
:103A20001F2318407047C04608022440007810B594
:103A300040B2431C03D0C9B2C0B2FEF7E5FF10BDCF
:103A400010B50400080011002070431C06D0C0B25D
:103A5000FEF7CCFF20000399FFF7E8FF10BD00231D
:103A6000C35610B500205A1C02D0D8B2FFF700F898
:103A700010BD030010B50800190001F023F910BDB6
:103A8000002243088B4274D303098B425FD3030A9D
:103A90008B4244D3030B8B4228D3030C8B420DD3B0
:103AA000FF22090212BA030C8B4202D3121209023E
:103AB00065D0030B8B4219D300E0090AC30B8B427C
:103AC00001D3CB03C01A5241830B8B4201D38B032A
:103AD000C01A5241430B8B4201D34B03C01A5241CF
:103AE000030B8B4201D30B03C01A5241C30A8B4212
:103AF00001D3CB02C01A5241830A8B4201D38B02FD
:103B0000C01A5241430A8B4201D34B02C01A5241A0
:103B1000030A8B4201D30B02C01A5241CDD2C30912
:103B20008B4201D3CB01C01A524183098B4201D38E
:103B30008B01C01A524143098B4201D34B01C01A79
:103B4000524103098B4201D30B01C01A5241C308F1
:103B50008B4201D3CB00C01A524183088B4201D360
:103B60008B00C01A524143088B4201D34B00C01A4C
:103B70005241411A00D20146524110467047FFE7B8
:103B800001B5002000F006F802BDC0460029F7D0BC
:103B900076E770477047C046F0B515042D0C0F004E
:103BA00001002E00C64684460004140C000C090CCB
:103BB00046434D43604361434019340C241800B51B
:103BC000A54203D98020400280464144250C6D184F
:103BD000614659437A43300449192404000C2018E3
:103BE000891804BC9046F0BD70B500220C4B04004F
:103BF0000D0000F021FF002804D12000290000F072
:103C00008BFE70BD064B00222000290000F0F2FA66
:103C100000F082FE80231B069C466044F1E7C0460C
:103C20000000E041F0B557464E464546DE46E0B559
:103C3000814605000C03480092461F0085B0240B06
:103C4000400DCE0F002859D0874B984200D198E004
:103C50006B0FE4001C4380231B0423439846834BD3
:103C6000ED009B4600239946834400933C037B0070
:103C70005046240B5B0DFF0F002B67D07A4A93420E
:103C800018D07A49420F8C46E400594614438022EA
:103C900063441204CB1A14439B46C2000020330035
:103CA0007B409A464B460F2B00D9EFE070499B00B2
:103CB000CB589F466F4B52469C462243E344002A12
:103CC00000D095E04946022319438946002402208A
:103CD000E5E700230024002552461B052343D207B5
:103CE00013432800190005B03CBC90469946A246F3
:103CF000AB46F0BD002400255B4BEDE74B4623436C
:103D0000984600D189E0002C00D1E0E1200000F0CD
:103D10009DFE010002000B391D235B1A494610006D
:103D2000D940083884400B004D46234398468540CF
:103D300051483C03831A9B460023994600937B001D
:103D40005046240B5B0DFF0F002B97D152462243A8
:103D500055D0002C00D1CAE1200000F077FE02000F
:103D60000B3A1D2301009B1A52460839DA408C4059
:103D7000144352468A40414B58449B46834400209A
:103D80008DE74B462343984640D108239946063B8E
:103D900000258346009369E7B246009B022BA9D019
:103DA000032B00D111E2012B93D0354A5A44002A4B
:103DB00000DC3CE16B0700D0A7E1ED084346DB01E6
:103DC00006D542462F4B1A4090468022D2005A44D4
:103DD0002D4B9A428EDC4346520558075C02054340
:103DE000240B530D78E7BA46A04615000090D4E79F
:103DF0004A4603231A439146032052464FE7494659
:103E00000123194389460024012048E70C239946E1
:103E1000093BA0468346009328E7042399460023E4
:103E20009B4601330025009320E7002380249A4617
:103E300000250D4B24034FE7802341461B03194205
:103E400008D01C4206D11C432403BA461500064B79
:103E5000240B41E78024434624031C432403B24639
:103E6000014B240B38E7C046FF07000001FCFFFFB1
:103E70002C4F000001F8FFFF0DFCFFFFF3030000D3
:103E8000FF030000FFFFFFFEFE070000444500D2D5
:103E900016E100D111E101235B429C462E00404611
:103EA0000025E3442302140E1C431B0C99462304F3
:103EB0001F0C1202494600920197FFF767FE0200AD
:103EC0007A430B04310C804619438A420BD90123F3
:103ED0005B429C460919E0448C4204D88A4202D9CC
:103EE000831E98460919881A4946FFF74FFE0904B0
:103EF0008C4631046646019A090C42430300314363
:103F00008A4204D90919013B8C4200D811E1891A6F
:103F10004246009E12041A43330C1F00100C9046B8
:103F2000029313043204160C32001B0C5A430396FE
:103F30007B4346437843170CBC469B1963449E421F
:103F400003D980267602B44660441E0C301816044D
:103F50001B04360C9E19814200D29CE000D197E0F0
:103F6000AE1B091AB54280414042081A844200D172
:103F700011E14946FFF70AFE019A0B044243310C56
:103F8000050019438A4207D90919013D8C4203D81B
:103F90008A4201D9851E0919881A4946FFF7F6FD9C
:103FA00009048C4631046646019A090C4243030019
:103FB00031438A4207D90919013B8C4203D88A420E
:103FC00001D9831E0919039E891A32002D041D434D
:103FD000029F2B041B0C5A437B439C46280C4643F0
:103FE000130CB444634478439E4203D9802676027E
:103FF000B44660441E0C12041B04120C30189B18AB
:10400000814206D302D001231D43CEE6002B00D10E
:10401000CBE661186E1EA14200D2A4E0814200D21C
:10402000C9E000D1D9E03500EDE701256D4201215D
:10403000891A382900DD4CE61F2900DC7FE01F23A8
:104040005B429A1A4346D340202904D04446654A2D
:104050005A44944025436A1E954107222B4315007C
:1040600000241D401A4200D1A1E00F2200241A4072
:10407000042A00D198E01A1D9A429B415B42E41841
:104080001300220200D48FE001230024002523E640
:10409000B54200D364E743465A1E009B9C466544E4
:1040A0001F009D429B415B421B19C9188C423AD2AA
:1040B000884263D860D0904652E7AA4200D9EAE627
:1040C0004346DE0758086B081E43ED07EAE64846FC
:1040D00000F0BCFC01000200153120321C2900DC7C
:1040E0001AE64B46083883400025984620E600F043
:1040F000ADFC03001A00153220301C2A00DC30E62B
:104100005446083B00229C4035E60F232B40042BED
:1041100000D152E605235B42AB429B4104355B4232
:10412000ED0898444AE68C42C5D1AF42C0D99046CA
:1041300016E78A4200D8EAE6831E0919E7E62A4A0A
:1041400028005A44434695409340C8406A1E954112
:10415000444603432B43CC405A0792D00F221A40C7
:10416000042A88D18DE73500814200D04BE7009AC0
:10417000934200D047E718E6AE429CD902235B4247
:104180009C46009BE0449C4665449D429B415B42AB
:104190001B19C918E4E6154A5A44002A00DC44E712
:1041A00001230025984409E665076402240BDB0817
:1041B0001D43002390E5009E023D7200B242BF41C4
:1041C0007F423C1909190092CEE78024434624031C
:1041D0001C432403064B240B7EE5009A9A42EAD343
:1041E0003500C4E73E0400001E040000FF03000089
:1041F000FF070000F8B557464E464546DE46040028
:10420000E0B51F0010000B03620F4E00CD0F5B0ADC
:1042100039031343490AE200440F2143C24C91463B
:104220009246C0007A008046760D520DFF0FA242E2
:1042300000D1B4E001246740BB46BD4200D188E014
:10424000B41AA446002C00DCB2E0002A00D1C5E07C
:10425000B54A964200D18BE2802212041143624695
:10426000382A00DDA1E11F2A00DD16E220270C001C
:10427000BF1ABC400200A0466446B840E240444633
:1042800014430200501E82416046C14022435B1A23
:1042900049468C1AA145924152429B1A9846434680
:1042A0001B0200D417E143465B025B0A9846434673
:1042B000002B00D16CE1404600F0C8FB0200083A38
:1042C000202120004346891A9340C840944003436C
:1042D000964200DD57E1961B711C1F2900DDCBE1E2
:1042E000202218002600521A94409040CE40CB4025
:1042F000621E94413043984600260443630709D068
:104300000F232340042B05D0231DA342A441644264
:10431000A0441C0043461B0200D4DFE0824B013660
:104320009E4200D1FBE04246804BE4081A40130055
:10433000710552075B0222431B0B490D0905ED076E
:104340001943294310003CBC90469946A246AB460F
:10435000F8BDB41AA446002C58DD002A00D19EE016
:10436000714A964200D13BE1802212041143624619
:10437000382A00DDC1E01F2A00DCBBE10C00203A36
:10438000D44022006446202C04D040273F1BB94073
:10439000084380464446611E8C411443B1E00C0042
:1043A00004432AD0BB46BD422DD0614CA446B44440
:1043B0006446002C5CD0941BA446002E00D015E16E
:1043C0004D461D4300D1C3E1651E012C00D10CE216
:1043D000554EB44200D1F8E1AC460EE10A0002436A
:1043E00000D136E12200013A012C00D1C6E14E4C49
:1043F000A44500D1F4E0944631E701246740BB4670
:10440000BD4200D01CE74A4CA446B4446446002C8C
:1044100000D1CFE0941BA446002E00D15CE1424EB7
:10442000B24200D1ECE18026360433436446382C96
:1044300000DDB3E11F2C00DD38E22026361B1C0016
:10444000B4404F46A0466446E74044463C434F468E
:10445000B7403E00771EBE4134436646F340C9185C
:10446000241884429B415B429846160088444EE0E3
:10447000304A741C144200D0D6E04A461A43002E3B
:1044800000D05BE1002A00D1A5E10A00024300D080
:10449000BBE14A465907D2080A43DB0827E00A0075
:1044A000024300D174E12200013A012C05D01E4CD8
:1044B000A44500D194E0944659E7484448459241C8
:1044C0005B189846040052429044434602261B0261
:1044D00000D5C4E0013E630700D011E74346B4466F
:1044E0005907E2080A43DB080F498C4540D0614672
:1044F0001B0349051B0B490D20E701430C00611EFE
:104500008C414C444C45924152429046984443461B
:104510001B02E0D5044B01369E4200D09FE03100E3
:10452000002300220AE7C046FF070000FFFF7FFFCD
:1045300001F8FFFFFE070000002A00D160E10A0039
:1045400002434DD04A465C07D20822438024DB0850
:104550002403234207D0CE08264204D15D4633000F
:10456000C20849070A43510FD200D20849070A433B
:104570001100194300D1C8E1802109030B431B033B
:10458000D5491B0BDAE6D549B61A0B409846B5E675
:10459000200000F05BFA020018321F2A00DC8FE6D0
:1045A000230008388340002492E608430200501E8E
:1045B00082416DE6CA4C721C224200D0ADE04A46F0
:1045C0001A43002EB8D1002A00D158E10A00024354
:1045D00000D059E14A465907D2080A43DB0886E76A
:1045E0004A465907D2080A43DB08C1E7BA4DAA4236
:1045F00000D11EE180252D042B436446382C5DDC60
:104600001F2C00DDD0E0202567462D1B4E461C00E8
:10461000FE40AC4034434E46AE403500FB406E1E7B
:10462000B541C91A2C434EE04A46141AA14592419D
:10463000524290465F1A3A004746D21B90461202F9
:1046400000D58BE04246224300D030E6002300250F
:104650004DE74A465907D2080A43DB0844E7424679
:104660009E4B61081A401300012214400C43DA07E4
:104670005B089846144341E61A001F3EF2401600BC
:10468000202903D04022511A8B401C43621E9441C2
:1046900000233443984600261DE70C00203AD440FE
:1046A00022006446202C04D040273F1BB940084319
:1046B00080464446611E8C412243E9E54C46234333
:1046C0001C00631E9C41041BA0429B415B42CB1A11
:1046D00098465D461600E2E54E461E4300D1AEE028
:1046E000661E012C00D1FDE07B4FBC4200D107E1EA
:1046F000B4469BE664462022121B0C00944007003F
:104700009040A0466446421E90416246E7404446BF
:10471000D1403C4304435B18F3E66F4CA24200D106
:10472000D5E048445B184845894149425B18DC079D
:1047300040085B08984616000443CCE6002A00D0E7
:1047400082E00A00024340D1802300251B0313E7C7
:104750004B07C2081A435D46CB08C5E64A46841A91
:10476000A0429241CB1A52429B1A98465D469EE562
:104770004A465907D2080A43DB08F9E64A46141AA2
:10478000A14592415B1A52429B1A9846012686E542
:104790004A465907D2080A43DB08A5E64C4623439C
:1047A0001C00631E9C415BE665461E00203DEE40FA
:1047B000202C05D040252D1BAB404C461C43A24667
:1047C0005446631E9C4134437DE74B07C2081A439D
:1047D0005D46CB08CCE60A00024300D136E74B0722
:1047E000C2081A435D46CB0881E64A46841AA042B5
:1047F0009241CB1A52429B1A98465D4601264EE5DD
:104800004B07C2081A43CB08B2E64A46141AA14520
:1048100092415F1A5242BA1A904612026BD54A462A
:10482000841AA0429241CB1A52429B1A98465D4686
:1048300064E54B07C2081A435D46CB0898E64B0770
:10484000C2081A43CB084FE60A00024390D04A46FA
:104850005C07D20814438022DB081203134208D0FD
:10486000CE08164205D1C0084907084304005D463A
:104870003300610FE2004907D2080A4378E64B078C
:10488000C2081A43CB0832E648445B1848459241B7
:10489000984652429044434604001B0200D41AE654
:1048A00042460E4B01261A40904614E666461F000B
:1048B000203EF740202C05D04026361BB3404C4606
:1048C0001C43A2465446631E9C413C43C8E511006C
:1048D0000023002232E5C046FF070000FFFF7FFFF4
:1048E000FE0700004A461418844292415B1898461D
:1048F00052429044E9E54246224300D1A6E6EAE569
:104900004B07C2081A43CB0832E6002201491300C4
:1049100014E5C046FF0700000A0030B5134C5300F1
:1049200009030500090B00205B0DD20FA34204DD33
:104930000F48834202DD0F4BD01830BD802040036A
:1049400001430D48C01A1F2808DD0C48C31AD9407E
:104950000B005842002AF0D11800EEE7084CC54081
:10496000A446634499400B002B43F2E7FE0300008A
:104970001D040000FFFFFF7F33040000130400004C
:10498000EDFBFFFF10B5041E10D000F05FF80F4BD9
:104990001B1A0A2811DC0B222100121AD1401530F3
:1049A0000A035B058440120B5B0D01E0002300222B
:1049B0001B0513432000190010BD22000B38824054
:1049C0005B0512030024120B5B0DF1E71E040000CF
:1049D0008446101C62468C46191C634600E0C046A3
:1049E0001FB500F0FFF8002801D40021C8421FBD08
:1049F00010B500F049F84042013010BD10B500F08C
:104A0000F1F8002801DB002010BD012010BDC046D8
:104A100010B500F0E7F8002801DD002010BD0120EE
:104A200010BDC04610B500F06BF8002801DC002076
:104A300010BD012010BDC04610B500F061F800287F
:104A400001DA002010BD012010BDC0461C21012349
:104A50001B04984201D3000C10391B0A984201D361
:104A6000000A08391B09984201D30009043902A23F
:104A7000105C40187047C0460403020201010101A6
:104A80000000000000000000F0B54F464646D64644
:104A9000944691461A03120B184DC0B54C000F03F3
:104AA00092465A00060080463F0B0120640DC90F54
:104AB000520DDB0FAC420AD0AA4203D0944201D17E
:104AC00057450DD01CBC90469946A246F0BD3D000E
:104AD0003543F7D1A242F5D1524665462A43F1D17A
:104AE0000120C845EED1994206D0002CEAD13E43C0
:104AF0003000461EB041E5E70020E3E7FF07000075
:104B0000F0B54E4645465746DE4604001800E0B56F
:104B100016001B031B0B324D0F034A00994643003E
:104B2000A446B0463F0B520DC90F5B0DC00FAA4201
:104B300029D0AB4218D0002A2AD13C43A346654273
:104B40006541002B02D14C46264327D0002D15D1BC
:104B5000814228D002200139084001383CBC9046EF
:104B60009946A246AB46F0BD4D462E432FD1002AB2
:104B7000EED13C4365426541002DE9D00028EDD1DE
:104B800001204042EAE73D00254320D19342EBD08B
:104B9000002BDDD14C462643DAD1DBE75B46002013
:104BA000002BDBD0D6E79A420ADCE7DB4F45D1D8B1
:104BB00010D000204F45D1D20029E1D00800CDE728
:104BC000434258410223404218400138C6E70220C0
:104BD0004042C3E7C445BDD80020C445BED2EBE780
:104BE000FF070000F0B54E4645465746DE46040036
:104BF0001800E0B516001B031B0B314D0F034A00D4
:104C000099464300A446B0463F0B520DC90F5B0DB9
:104C1000C00FAA4211D0AB4214D0002A2FD13C437E
:104C2000A34665426541002B14D14C46264311D161
:104C30005B460020002B17D010E03D00254312D129
:104C400093421CD14D462E430DD1002A04D13C4342
:104C500065426541002D0DD1814216D002200139F7
:104C60000840013800E002203CBC90469946A2462C
:104C7000AB46F0BD0028F7D101204042F4E7002BFD
:104C8000EAD14C462643E7D1E8E79A4206DD4342A3
:104C900058410223404218400138E5E79A42E9DBD7
:104CA0004F45DBD806D000204F45DDD20029E3D0A8
:104CB0000800D9E7C445D1D80020C445D4D2F5E7CF
:104CC000FF07000010B5040004481300002804D0BA
:104CD0000A000220210000E000BF10BD000000001B
:104CE000014B18687047C046D400002070B50026FC
:104CF0000C4D0D4C641BA410A64209D1002600F0F7
:104D000035F90A4D0A4C641BA410A64205D170BDAA
:104D1000B300EB5898470136EEE7B300EB589847DD
:104D20000136F2E7784F0000784F0000784F00001E
:104D3000844F000010B5034B0100186800F060F8C4
:104D400010BDC046D400002010B5034B0100186808
:104D500000F00CF810BDC046D400002003008218FB
:104D6000934200D1704719700133F9E770B505001F
:104D7000002910D00C1F2368002B00DAE41828004B
:104D800000F0AEF81D4A1368002B05D16360146073
:104D9000280000F0ADF870BDA34208D92168601862
:104DA0008342F3D118685B6841182160EEE71A006E
:104DB0005B68002B01D0A342F9D911685018A042BA
:104DC0000BD120680918501811608342E0D118688F
:104DD0005B68411811605360DAE7A04202D90C23E6
:104DE0002B60D5E721686018834203D118685B689F
:104DF0004118216063605460CAE7C0466C0200201D
:104E0000F8B50323CD1C9D43083506000C2D1FD299
:104E10000C25A9421ED8300000F062F825490A6826
:104E20001400002C1AD1244F3B68002B04D1210020
:104E3000300000F043F838602900300000F03EF800
:104E4000431C2BD10C233000336000F051F803E0F9
:104E5000002DDEDA0C2333600020F8BD23685B1BD5
:104E600019D40B2B03D92360E418256003E0636891
:104E7000A2420ED10B60300000F03AF82000072269
:104E80000B30231D9043C21A9842E6D01B1AA35040
:104E9000E3E75360EFE722006468C2E70323C41C22
:104EA0009C43A042E1D0211A300000F007F8431CD7
:104EB000DBD1C7E76C02002070020020002370B530
:104EC000064D040008002B60FDF76AFF431C03D168
:104ED0002B68002B00D0236070BDC04674020020F8
:104EE00010B5024800F00CF810BDC0467C0200204E
:104EF00010B5024800F005F810BDC0467C02002045
:044F0000704770473F
:044F040000000000A9
:104F0800040000000004000000000400EEDBC9B942
:104F1800AA9B8E82766B60564D443B332C241D171A
:104F2800100A04008C3E0000F43C0000D23C000053
:104F3800E63D0000D23C00002A3E0000D23C0000C2
:104F4800E63D0000F43C0000F43C00002A3E00006E
:104F5800E63D0000983D0000983D0000983D0000A7
:104F6800383E0000F8B5C046F8BC08BC9E467047FD
:104F78000924000049260000192E0000F8B5C04693
:104F8800F8BC08BC9E467047E1230000A84F00000B
:104F9800B800002080000000500100000000000060
:104FA8000000000088020020040404000000C05D26
:104FB800006CDC0280BB000030000000D80000203C
:104FC80000000000000000000000000000000000D9
:104FD80000000000000000000000000000000000C9
:104FE80000000000000000000000000000000000B9
:104FF80000000000000000000000000000000000A9
:105008000000000000000000000000000000000098
:105018000000000000000000000000000000000088
:020000021000EC
:10FFC0000000000000000000000000000000000031
:10FFD0000000000000000000000000000000000021
:10FFE0000000000000000000000000000000000011
:10FFF0000000000000000000000000000000000001
:020000020000FC
:0200000490402A
:10000000FFFFFFFF000000000000000000000000F4
:1000100000000000000000000000000000000000E0
:1000200000000000000000000000000000000000D0
:1000300000000000000000000000000000000000C0
:0200000490501A
:0C0000000002256A11B500002575124CA5
:0200000490600A
:0100000002FD
:02000004F0000A
:1000000000000000000000000000000000000000F0
:1000100000000000010000000000000000000000DF
:1000200000000000000000000000000000000000D0
:1000300000000000000000000000000000000000C0
:0400000300002211C6
:00000001FF
